{
  "contractName": "Admin",
  "abi": [
    {
      "constant": true,
      "inputs": [
        {
          "internalType": "uint256",
          "name": "",
          "type": "uint256"
        }
      ],
      "name": "admins",
      "outputs": [
        {
          "internalType": "string",
          "name": "email",
          "type": "string"
        },
        {
          "internalType": "string",
          "name": "password",
          "type": "string"
        }
      ],
      "payable": false,
      "stateMutability": "view",
      "type": "function"
    },
    {
      "constant": true,
      "inputs": [
        {
          "internalType": "string",
          "name": "",
          "type": "string"
        }
      ],
      "name": "list_email_admin",
      "outputs": [
        {
          "internalType": "string",
          "name": "email",
          "type": "string"
        },
        {
          "internalType": "string",
          "name": "password",
          "type": "string"
        }
      ],
      "payable": false,
      "stateMutability": "view",
      "type": "function"
    },
    {
      "constant": false,
      "inputs": [
        {
          "internalType": "string",
          "name": "_email",
          "type": "string"
        },
        {
          "internalType": "string",
          "name": "_password",
          "type": "string"
        }
      ],
      "name": "AddAdminstring",
      "outputs": [
        {
          "internalType": "bool",
          "name": "",
          "type": "bool"
        }
      ],
      "payable": false,
      "stateMutability": "nonpayable",
      "type": "function"
    },
    {
      "constant": true,
      "inputs": [
        {
          "internalType": "string",
          "name": "_email",
          "type": "string"
        },
        {
          "internalType": "string",
          "name": "_password",
          "type": "string"
        }
      ],
      "name": "VerifieAdmin",
      "outputs": [
        {
          "internalType": "bool",
          "name": "v",
          "type": "bool"
        }
      ],
      "payable": false,
      "stateMutability": "view",
      "type": "function"
    }
  ],
  "bytecode": "0x608060405234801561001057600080fd5b50610bf3806100206000396000f3fe608060405234801561001057600080fd5b506004361061004c5760003560e01c806314bfd6d0146100515780638423da3514610082578063dba96e27146100b2578063df554c8d146100e3575b600080fd5b61006b60048036036100669190810190610825565b610113565b604051610079929190610a0d565b60405180910390f35b61009c600480360361009791908101906107b9565b610274565b6040516100a991906109f2565b60405180910390f35b6100cc60048036036100c79190810190610778565b610375565b6040516100da929190610a0d565b60405180910390f35b6100fd60048036036100f891908101906107b9565b6104df565b60405161010a91906109f2565b60405180910390f35b6001818154811061012057fe5b9060005260206000209060020201600091509050806000018054600181600116156101000203166002900480601f0160208091040260200160405190810160405280929190818152602001828054600181600116156101000203166002900480156101cc5780601f106101a1576101008083540402835291602001916101cc565b820191906000526020600020905b8154815290600101906020018083116101af57829003601f168201915b505050505090806001018054600181600116156101000203166002900480601f01602080910402602001604051908101604052809291908181526020018280546001816001161561010002031660029004801561026a5780601f1061023f5761010080835404028352916020019161026a565b820191906000526020600020905b81548152906001019060200180831161024d57829003601f168201915b5050505050905082565b60008260405160200161028791906109af565b604051602081830303815290604052805190602001206000846040516102ad91906109af565b90815260200160405180910390206000016040516020016102ce91906109c6565b6040516020818303038152906040528051906020012014801561035c5750816040516020016102fd91906109af565b6040516020818303038152906040528051906020012060008460405161032391906109af565b908152602001604051809103902060010160405160200161034491906109c6565b60405160208183030381529060405280519060200120145b1561036a576001905061036f565b600090505b92915050565b600081805160208101820180518482526020830160208501208183528095505050505050600091509050806000018054600181600116156101000203166002900480601f0160208091040260200160405190810160405280929190818152602001828054600181600116156101000203166002900480156104375780601f1061040c57610100808354040283529160200191610437565b820191906000526020600020905b81548152906001019060200180831161041a57829003601f168201915b505050505090806001018054600181600116156101000203166002900480601f0160208091040260200160405190810160405280929190818152602001828054600181600116156101000203166002900480156104d55780601f106104aa576101008083540402835291602001916104d5565b820191906000526020600020905b8154815290600101906020018083116104b857829003601f168201915b5050505050905082565b60006040516020016104f0906109dd565b6040516020818303038152906040528051906020012060008460405161051691906109af565b908152602001604051809103902060000160405160200161053791906109c6565b604051602081830303815290604052805190602001201461058d576040517f08c379a000000000000000000000000000000000000000000000000000000000815260040161058490610a44565b60405180910390fd5b60016040518060400160405280858152602001848152509080600181540180825580915050906001820390600052602060002090600202016000909192909190915060008201518160000190805190602001906105eb929190610616565b506020820151816001019080519060200190610608929190610616565b505050506001905092915050565b828054600181600116156101000203166002900490600052602060002090601f016020900481019282601f1061065757805160ff1916838001178555610685565b82800160010185558215610685579182015b82811115610684578251825591602001919060010190610669565b5b5090506106929190610696565b5090565b6106b891905b808211156106b457600081600090555060010161069c565b5090565b90565b600082601f8301126106cc57600080fd5b81356106df6106da82610a91565b610a64565b915080825260208301602083018583830111156106fb57600080fd5b610706838284610b46565b50505092915050565b600082601f83011261072057600080fd5b813561073361072e82610abd565b610a64565b9150808252602083016020830185838301111561074f57600080fd5b61075a838284610b46565b50505092915050565b60008135905061077281610b99565b92915050565b60006020828403121561078a57600080fd5b600082013567ffffffffffffffff8111156107a457600080fd5b6107b0848285016106bb565b91505092915050565b600080604083850312156107cc57600080fd5b600083013567ffffffffffffffff8111156107e657600080fd5b6107f28582860161070f565b925050602083013567ffffffffffffffff81111561080f57600080fd5b61081b8582860161070f565b9150509250929050565b60006020828403121561083757600080fd5b600061084584828501610763565b91505092915050565b61085781610b30565b82525050565b600061086882610b09565b6108728185610b25565b9350610882818560208601610b55565b80840191505092915050565b600061089982610afe565b6108a38185610b14565b93506108b3818560208601610b55565b6108bc81610b88565b840191505092915050565b6000815460018116600081146108e457600181146109095761094d565b607f60028304166108f58187610b25565b955060ff198316865280860193505061094d565b600282046109178187610b25565b955061092285610ae9565b60005b8281101561094457815481890152600182019150602081019050610925565b82880195505050505b505092915050565b6000610962600683610b14565b91507f65727265757200000000000000000000000000000000000000000000000000006000830152602082019050919050565b60006109a2600083610b25565b9150600082019050919050565b60006109bb828461085d565b915081905092915050565b60006109d282846108c7565b915081905092915050565b60006109e882610995565b9150819050919050565b6000602082019050610a07600083018461084e565b92915050565b60006040820190508181036000830152610a27818561088e565b90508181036020830152610a3b818461088e565b90509392505050565b60006020820190508181036000830152610a5d81610955565b9050919050565b6000604051905081810181811067ffffffffffffffff82111715610a8757600080fd5b8060405250919050565b600067ffffffffffffffff821115610aa857600080fd5b601f19601f8301169050602081019050919050565b600067ffffffffffffffff821115610ad457600080fd5b601f19601f8301169050602081019050919050565b60008190508160005260206000209050919050565b600081519050919050565b600081519050919050565b600082825260208201905092915050565b600081905092915050565b60008115159050919050565b6000819050919050565b82818337600083830152505050565b60005b83811015610b73578082015181840152602081019050610b58565b83811115610b82576000848401525b50505050565b6000601f19601f8301169050919050565b610ba281610b3c565b8114610bad57600080fd5b5056fea365627a7a723158202a2e544f14af2db2f9cb74aa562101e60bee90a47f175037f20c4b526c5a709c6c6578706572696d656e74616cf564736f6c63430005100040",
  "source": "pragma solidity ^0.5.16;\npragma experimental ABIEncoderV2;\ncontract Admin {\n  struct admin {\n\n      string email;\n      string password;\n  }\n\n  mapping(string => admin) public list_email_admin;\n  admin[] public admins;\n  function AddAdminstring(string memory _email,string memory _password) public  returns(bool){\n        require((keccak256(abi.encodePacked((list_email_admin[_email].email))) == keccak256(abi.encodePacked((\"\")))),\"erreur\");\n        admins.push(admin(_email,_password));\n        return true;\n    }\n\n    function VerifieAdmin(string memory _email,string memory _password) public view returns(bool v){\n        if((keccak256(abi.encodePacked((list_email_admin[_email].email))) == keccak256(abi.encodePacked((_email)))) &&\n        (keccak256(abi.encodePacked((list_email_admin[_email].password))) == keccak256(abi.encodePacked((_password))))) return (true);\n        return (false);\n    }\n}",
  "sourcePath": "/home/kali/Desktop/blockchain/test/e-health_blockchain/contracts/admin.sol",
  "compiler": {
    "name": "solc",
    "version": "0.5.16+commit.9c3226ce.Emscripten.clang"
  },
  "schemaVersion": "3.4.1",
  "updatedAt": "2021-06-25T22:18:34.162Z",
  "devdoc": {
    "methods": {}
  },
  "userdoc": {
    "methods": {}
  }
}