{
  "contractName": "admin",
  "abi": [
    {
      "constant": true,
      "inputs": [
        {
          "internalType": "string",
          "name": "",
          "type": "string"
        }
      ],
      "name": "list_email_admin",
      "outputs": [
        {
          "internalType": "string",
          "name": "email",
          "type": "string"
        },
        {
          "internalType": "string",
          "name": "password",
          "type": "string"
        }
      ],
      "payable": false,
      "stateMutability": "view",
      "type": "function"
    },
    {
      "constant": false,
      "inputs": [
        {
          "internalType": "string",
          "name": "_email",
          "type": "string"
        },
        {
          "internalType": "string",
          "name": "_password",
          "type": "string"
        }
      ],
      "name": "AddAdmin",
      "outputs": [
        {
          "internalType": "bool",
          "name": "",
          "type": "bool"
        }
      ],
      "payable": false,
      "stateMutability": "nonpayable",
      "type": "function"
    },
    {
      "constant": true,
      "inputs": [
        {
          "internalType": "string",
          "name": "_email",
          "type": "string"
        },
        {
          "internalType": "string",
          "name": "_password",
          "type": "string"
        }
      ],
      "name": "VerifieAdmin",
      "outputs": [
        {
          "internalType": "bool",
          "name": "v",
          "type": "bool"
        }
      ],
      "payable": false,
      "stateMutability": "view",
      "type": "function"
    }
  ],
  "bytecode": "0x608060405234801561001057600080fd5b506109e8806100206000396000f3fe608060405234801561001057600080fd5b50600436106100415760003560e01c80638423da3514610046578063dba96e2714610076578063de698d8e146100a7575b600080fd5b610060600480360361005b91908101906105f8565b6100d7565b60405161006d9190610808565b60405180910390f35b610090600480360361008b91908101906105b7565b6101d8565b60405161009e929190610823565b60405180910390f35b6100c160048036036100bc91908101906105f8565b610342565b6040516100ce9190610808565b60405180910390f35b6000826040516020016100ea91906107c5565b6040516020818303038152906040528051906020012060008460405161011091906107c5565b908152602001604051809103902060000160405160200161013191906107dc565b604051602081830303815290604052805190602001201480156101bf57508160405160200161016091906107c5565b6040516020818303038152906040528051906020012060008460405161018691906107c5565b90815260200160405180910390206001016040516020016101a791906107dc565b60405160208183030381529060405280519060200120145b156101cd57600190506101d2565b600090505b92915050565b600081805160208101820180518482526020830160208501208183528095505050505050600091509050806000018054600181600116156101000203166002900480601f01602080910402602001604051908101604052809291908181526020018280546001816001161561010002031660029004801561029a5780601f1061026f5761010080835404028352916020019161029a565b820191906000526020600020905b81548152906001019060200180831161027d57829003601f168201915b505050505090806001018054600181600116156101000203166002900480601f0160208091040260200160405190810160405280929190818152602001828054600181600116156101000203166002900480156103385780601f1061030d57610100808354040283529160200191610338565b820191906000526020600020905b81548152906001019060200180831161031b57829003601f168201915b5050505050905082565b6000604051602001610353906107f3565b6040516020818303038152906040528051906020012060008460405161037991906107c5565b908152602001604051809103902060000160405160200161039a91906107dc565b60405160208183030381529060405280519060200120146103f0576040517f08c379a00000000000000000000000000000000000000000000000000000000081526004016103e79061085a565b60405180910390fd5b60405180604001604052808481526020018381525060008460405161041591906107c5565b9081526020016040518091039020600082015181600001908051906020019061043f92919061046a565b50602082015181600101908051906020019061045c92919061046a565b509050506001905092915050565b828054600181600116156101000203166002900490600052602060002090601f016020900481019282601f106104ab57805160ff19168380011785556104d9565b828001600101855582156104d9579182015b828111156104d85782518255916020019190600101906104bd565b5b5090506104e691906104ea565b5090565b61050c91905b808211156105085760008160009055506001016104f0565b5090565b90565b600082601f83011261052057600080fd5b813561053361052e826108a7565b61087a565b9150808252602083016020830185838301111561054f57600080fd5b61055a838284610952565b50505092915050565b600082601f83011261057457600080fd5b8135610587610582826108d3565b61087a565b915080825260208301602083018583830111156105a357600080fd5b6105ae838284610952565b50505092915050565b6000602082840312156105c957600080fd5b600082013567ffffffffffffffff8111156105e357600080fd5b6105ef8482850161050f565b91505092915050565b6000806040838503121561060b57600080fd5b600083013567ffffffffffffffff81111561062557600080fd5b61063185828601610563565b925050602083013567ffffffffffffffff81111561064e57600080fd5b61065a85828601610563565b9150509250929050565b61066d81610946565b82525050565b600061067e8261091f565b610688818561093b565b9350610698818560208601610961565b80840191505092915050565b60006106af82610914565b6106b9818561092a565b93506106c9818560208601610961565b6106d281610994565b840191505092915050565b6000815460018116600081146106fa576001811461071f57610763565b607f600283041661070b818761093b565b955060ff1983168652808601935050610763565b6002820461072d818761093b565b9550610738856108ff565b60005b8281101561075a5781548189015260018201915060208101905061073b565b82880195505050505b505092915050565b600061077860068361092a565b91507f65727265757200000000000000000000000000000000000000000000000000006000830152602082019050919050565b60006107b860008361093b565b9150600082019050919050565b60006107d18284610673565b915081905092915050565b60006107e882846106dd565b915081905092915050565b60006107fe826107ab565b9150819050919050565b600060208201905061081d6000830184610664565b92915050565b6000604082019050818103600083015261083d81856106a4565b9050818103602083015261085181846106a4565b90509392505050565b600060208201905081810360008301526108738161076b565b9050919050565b6000604051905081810181811067ffffffffffffffff8211171561089d57600080fd5b8060405250919050565b600067ffffffffffffffff8211156108be57600080fd5b601f19601f8301169050602081019050919050565b600067ffffffffffffffff8211156108ea57600080fd5b601f19601f8301169050602081019050919050565b60008190508160005260206000209050919050565b600081519050919050565b600081519050919050565b600082825260208201905092915050565b600081905092915050565b60008115159050919050565b82818337600083830152505050565b60005b8381101561097f578082015181840152602081019050610964565b8381111561098e576000848401525b50505050565b6000601f19601f830116905091905056fea365627a7a723158204197897752a0a6b2a6959c2bd6942b93ea1b019863fd226920276950770641436c6578706572696d656e74616cf564736f6c63430005100040",
  "source": "pragma solidity ^0.5.16;\npragma experimental ABIEncoderV2;\ncontract admin {\n  struct Admin {\n\n      string email;\n      string password;\n  }\n\n  mapping(string => Admin) public list_email_admin;\n // admin[] public admins;\n  function AddAdmin(string memory _email,string memory _password) public  returns(bool){\n        require((keccak256(abi.encodePacked((list_email_admin[_email].email))) == keccak256(abi.encodePacked((\"\")))),\"erreur\");\n        //admins.push(admin(_email,_password));\n        list_email_admin[_email]=Admin(_email,_password);\n        return true;\n    }\n\n    function VerifieAdmin(string memory _email,string memory _password) public view returns(bool v){\n        if((keccak256(abi.encodePacked((list_email_admin[_email].email))) == keccak256(abi.encodePacked((_email)))) &&\n        (keccak256(abi.encodePacked((list_email_admin[_email].password))) == keccak256(abi.encodePacked((_password))))) return (true);\n        return (false);\n    }\n}",
  "sourcePath": "/home/kali/Desktop/blockchain/test/e-health_blockchain/contracts/admin.sol",
  "compiler": {
    "name": "solc",
    "version": "0.5.16+commit.9c3226ce.Emscripten.clang"
  },
  "schemaVersion": "3.4.1",
  "updatedAt": "2021-06-28T21:58:08.931Z",
  "networkType": "ethereum",
  "devdoc": {
    "methods": {}
  },
  "userdoc": {
    "methods": {}
  }
}