{
  "contractName": "DossierMedicale",
  "abi": [
    {
      "constant": true,
      "inputs": [
        {
          "internalType": "uint256",
          "name": "",
          "type": "uint256"
        },
        {
          "internalType": "uint256",
          "name": "",
          "type": "uint256"
        }
      ],
      "name": "list_dossier_user",
      "outputs": [
        {
          "internalType": "uint256",
          "name": "id",
          "type": "uint256"
        },
        {
          "internalType": "string",
          "name": "NomDossier",
          "type": "string"
        },
        {
          "internalType": "string",
          "name": "hash_file",
          "type": "string"
        },
        {
          "internalType": "string",
          "name": "policy",
          "type": "string"
        }
      ],
      "payable": false,
      "stateMutability": "view",
      "type": "function"
    },
    {
      "constant": false,
      "inputs": [
        {
          "internalType": "uint256",
          "name": "_patient_id",
          "type": "uint256"
        },
        {
          "internalType": "string",
          "name": "_NomDossier",
          "type": "string"
        },
        {
          "internalType": "string",
          "name": "_hash_file",
          "type": "string"
        },
        {
          "internalType": "string",
          "name": "_policy",
          "type": "string"
        }
      ],
      "name": "CreerDossier",
      "outputs": [
        {
          "internalType": "bool",
          "name": "",
          "type": "bool"
        }
      ],
      "payable": false,
      "stateMutability": "nonpayable",
      "type": "function"
    },
    {
      "constant": false,
      "inputs": [
        {
          "internalType": "uint256",
          "name": "_patient_id",
          "type": "uint256"
        },
        {
          "internalType": "uint256",
          "name": "_dossier_id",
          "type": "uint256"
        },
        {
          "internalType": "string",
          "name": "_hash_file",
          "type": "string"
        }
      ],
      "name": "setHashNewDossier",
      "outputs": [
        {
          "internalType": "bool",
          "name": "",
          "type": "bool"
        }
      ],
      "payable": false,
      "stateMutability": "nonpayable",
      "type": "function"
    },
    {
      "constant": true,
      "inputs": [
        {
          "internalType": "uint256",
          "name": "_patient_id",
          "type": "uint256"
        },
        {
          "internalType": "uint256",
          "name": "_dossier_id",
          "type": "uint256"
        }
      ],
      "name": "GetPatientDossier",
      "outputs": [
        {
          "internalType": "uint256",
          "name": "",
          "type": "uint256"
        },
        {
          "internalType": "string",
          "name": "",
          "type": "string"
        },
        {
          "internalType": "string",
          "name": "",
          "type": "string"
        },
        {
          "internalType": "string",
          "name": "",
          "type": "string"
        }
      ],
      "payable": false,
      "stateMutability": "view",
      "type": "function"
    },
    {
      "constant": true,
      "inputs": [
        {
          "internalType": "uint256",
          "name": "_patinet_id",
          "type": "uint256"
        }
      ],
      "name": "GetAllDossier",
      "outputs": [
        {
          "internalType": "string[]",
          "name": "",
          "type": "string[]"
        }
      ],
      "payable": false,
      "stateMutability": "view",
      "type": "function"
    },
    {
      "constant": true,
      "inputs": [
        {
          "internalType": "uint256",
          "name": "_patinet_id",
          "type": "uint256"
        }
      ],
      "name": "GetAllDossierId",
      "outputs": [
        {
          "internalType": "uint256[]",
          "name": "",
          "type": "uint256[]"
        }
      ],
      "payable": false,
      "stateMutability": "view",
      "type": "function"
    }
  ],
  "bytecode": "0x608060405234801561001057600080fd5b5061118b806100206000396000f3fe608060405234801561001057600080fd5b50600436106100625760003560e01c80631d975895146100675780634fe667301461009a5780635a21ce66146100ca5780635fedb930146100fa57806362f18f501461012a578063697438791461015a575b600080fd5b610081600480360361007c9190810190610c38565b61018d565b6040516100919493929190610f11565b60405180910390f35b6100b460048036036100af9190810190610b64565b610432565b6040516100c19190610ed4565b60405180910390f35b6100e460048036036100df9190810190610c74565b610500565b6040516100f19190610ef6565b60405180910390f35b610114600480360361010f9190810190610b64565b610550565b6040516101219190610eb2565b60405180910390f35b610144600480360361013f9190810190610b8d565b6106ba565b6040516101519190610ef6565b60405180910390f35b610174600480360361016f9190810190610c38565b6107c4565b6040516101849493929190610f6b565b60405180910390f35b6000606080606060008087815260200190815260200160002085815481106101b157fe5b90600052602060002090600402016000015460008088815260200190815260200160002086815481106101e057fe5b9060005260206000209060040201600101600080898152602001908152602001600020878154811061020e57fe5b90600052602060002090600402016002016000808a8152602001908152602001600020888154811061023c57fe5b9060005260206000209060040201600301828054600181600116156101000203166002900480601f0160208091040260200160405190810160405280929190818152602001828054600181600116156101000203166002900480156102e25780601f106102b7576101008083540402835291602001916102e2565b820191906000526020600020905b8154815290600101906020018083116102c557829003601f168201915b50505050509250818054600181600116156101000203166002900480601f01602080910402602001604051908101604052809291908181526020018280546001816001161561010002031660029004801561037e5780601f106103535761010080835404028352916020019161037e565b820191906000526020600020905b81548152906001019060200180831161036157829003601f168201915b50505050509150808054600181600116156101000203166002900480601f01602080910402602001604051908101604052809291908181526020018280546001816001161561010002031660029004801561041a5780601f106103ef5761010080835404028352916020019161041a565b820191906000526020600020905b8154815290600101906020018083116103fd57829003601f168201915b50505050509050935093509350935092959194509250565b6060806001600080858152602001908152602001600020805490500160405190808252806020026020018201604052801561047c5781602001602082028038833980820191505090505b50905060008090505b600080858152602001908152602001600020805490508110156104f65760008085815260200190815260200160002081815481106104bf57fe5b9060005260206000209060040201600001548282815181106104dd57fe5b6020026020010181815250508080600101915050610485565b5080915050919050565b600081600080868152602001908152602001600020848154811061052057fe5b906000526020600020906004020160020190805190602001906105449291906109d6565b50600190509392505050565b6060806001600080858152602001908152602001600020805490500160405190808252806020026020018201604052801561059f57816020015b606081526020019060019003908161058a5790505b50905060008090505b600080858152602001908152602001600020805490508110156106b05760008085815260200190815260200160002081815481106105e257fe5b90600052602060002090600402016001018054600181600116156101000203166002900480601f0160208091040260200160405190810160405280929190818152602001828054600181600116156101000203166002900480156106875780601f1061065c57610100808354040283529160200191610687565b820191906000526020600020905b81548152906001019060200180831161066a57829003601f168201915b505050505082828151811061069857fe5b602002602001018190525080806001019150506105a8565b5080915050919050565b60008060016000808881526020019081526020016000206040518060800160405280600081526020018881526020018781526020018681525090806001815401808255809150509060018203906000526020600020906004020160009091929091909150600082015181600001556020820151816001019080519060200190610744929190610a56565b506040820151816002019080519060200190610761929190610a56565b50606082015181600301908051906020019061077e929190610a56565b5050500390508060008088815260200190815260200160002082815481106107a257fe5b9060005260206000209060040201600001819055506001915050949350505050565b600060205281600052604060002081815481106107dd57fe5b906000526020600020906004020160009150915050806000015490806001018054600181600116156101000203166002900480601f0160208091040260200160405190810160405280929190818152602001828054600181600116156101000203166002900480156108905780601f1061086557610100808354040283529160200191610890565b820191906000526020600020905b81548152906001019060200180831161087357829003601f168201915b505050505090806002018054600181600116156101000203166002900480601f01602080910402602001604051908101604052809291908181526020018280546001816001161561010002031660029004801561092e5780601f106109035761010080835404028352916020019161092e565b820191906000526020600020905b81548152906001019060200180831161091157829003601f168201915b505050505090806003018054600181600116156101000203166002900480601f0160208091040260200160405190810160405280929190818152602001828054600181600116156101000203166002900480156109cc5780601f106109a1576101008083540402835291602001916109cc565b820191906000526020600020905b8154815290600101906020018083116109af57829003601f168201915b5050505050905084565b828054600181600116156101000203166002900490600052602060002090601f016020900481019282601f10610a1757805160ff1916838001178555610a45565b82800160010185558215610a45579182015b82811115610a44578251825591602001919060010190610a29565b5b509050610a529190610ad6565b5090565b828054600181600116156101000203166002900490600052602060002090601f016020900481019282601f10610a9757805160ff1916838001178555610ac5565b82800160010185558215610ac5579182015b82811115610ac4578251825591602001919060010190610aa9565b5b509050610ad29190610ad6565b5090565b610af891905b80821115610af4576000816000905550600101610adc565b5090565b90565b600082601f830112610b0c57600080fd5b8135610b1f610b1a82610ff2565b610fc5565b91508082526020830160208301858383011115610b3b57600080fd5b610b468382846110de565b50505092915050565b600081359050610b5e81611131565b92915050565b600060208284031215610b7657600080fd5b6000610b8484828501610b4f565b91505092915050565b60008060008060808587031215610ba357600080fd5b6000610bb187828801610b4f565b945050602085013567ffffffffffffffff811115610bce57600080fd5b610bda87828801610afb565b935050604085013567ffffffffffffffff811115610bf757600080fd5b610c0387828801610afb565b925050606085013567ffffffffffffffff811115610c2057600080fd5b610c2c87828801610afb565b91505092959194509250565b60008060408385031215610c4b57600080fd5b6000610c5985828601610b4f565b9250506020610c6a85828601610b4f565b9150509250929050565b600080600060608486031215610c8957600080fd5b6000610c9786828701610b4f565b9350506020610ca886828701610b4f565b925050604084013567ffffffffffffffff811115610cc557600080fd5b610cd186828701610afb565b9150509250925092565b6000610ce78383610e22565b905092915050565b6000610cfb8383610e94565b60208301905092915050565b6000610d128261103e565b610d1c8185611084565b935083602082028501610d2e8561101e565b8060005b85811015610d6a5784840389528151610d4b8582610cdb565b9450610d568361106a565b925060208a01995050600181019050610d32565b50829750879550505050505092915050565b6000610d8782611049565b610d918185611095565b9350610d9c8361102e565b8060005b83811015610dcd578151610db48882610cef565b9750610dbf83611077565b925050600181019050610da0565b5085935050505092915050565b610de3816110c8565b82525050565b6000610df48261105f565b610dfe81856110b7565b9350610e0e8185602086016110ed565b610e1781611120565b840191505092915050565b6000610e2d82611054565b610e3781856110a6565b9350610e478185602086016110ed565b610e5081611120565b840191505092915050565b6000610e6682611054565b610e7081856110b7565b9350610e808185602086016110ed565b610e8981611120565b840191505092915050565b610e9d816110d4565b82525050565b610eac816110d4565b82525050565b60006020820190508181036000830152610ecc8184610d07565b905092915050565b60006020820190508181036000830152610eee8184610d7c565b905092915050565b6000602082019050610f0b6000830184610dda565b92915050565b6000608082019050610f266000830187610ea3565b8181036020830152610f388186610de9565b90508181036040830152610f4c8185610de9565b90508181036060830152610f608184610de9565b905095945050505050565b6000608082019050610f806000830187610ea3565b8181036020830152610f928186610e5b565b90508181036040830152610fa68185610e5b565b90508181036060830152610fba8184610e5b565b905095945050505050565b6000604051905081810181811067ffffffffffffffff82111715610fe857600080fd5b8060405250919050565b600067ffffffffffffffff82111561100957600080fd5b601f19601f8301169050602081019050919050565b6000819050602082019050919050565b6000819050602082019050919050565b600081519050919050565b600081519050919050565b600081519050919050565b600081519050919050565b6000602082019050919050565b6000602082019050919050565b600082825260208201905092915050565b600082825260208201905092915050565b600082825260208201905092915050565b600082825260208201905092915050565b60008115159050919050565b6000819050919050565b82818337600083830152505050565b60005b8381101561110b5780820151818401526020810190506110f0565b8381111561111a576000848401525b50505050565b6000601f19601f8301169050919050565b61113a816110d4565b811461114557600080fd5b5056fea365627a7a7231582081ced0bababe4a379864560f9dff15a8cafb22137ade875c5f89da824ebf8dcb6c6578706572696d656e74616cf564736f6c63430005100040",
  "source": "pragma solidity ^0.5.16;\npragma experimental ABIEncoderV2;\n\ncontract DossierMedicale {\n    \n    struct Dossier {\n        uint id;\n        string NomDossier;\n        string hash_file;\n        string policy;\n    }\n\n    mapping(uint /* Patient_id */ => Dossier[] ) public list_dossier_user;\n\n    function CreerDossier(uint _patient_id,string memory _NomDossier,string memory _hash_file,string memory _policy) public  returns(bool){\n     uint id= list_dossier_user[_patient_id].push(Dossier(0,_NomDossier,_hash_file,_policy)) -1; \n     list_dossier_user[_patient_id][id].id=id;\n     return true;     \n    }\n    function setHashNewDossier(uint _patient_id,uint _dossier_id,string memory _hash_file) public  returns(bool){\n     list_dossier_user[_patient_id][_dossier_id].hash_file=_hash_file;\n     return true;     \n    }\n    function GetPatientDossier(uint _patient_id,uint _dossier_id) public view returns(uint ,string memory,string memory ,string memory ){\n      return (list_dossier_user[_patient_id][_dossier_id].id\n                ,list_dossier_user[_patient_id][_dossier_id].NomDossier\n                ,list_dossier_user[_patient_id][_dossier_id].hash_file\n                ,list_dossier_user[_patient_id][_dossier_id].policy);     \n    }\n    function GetAllDossier(uint _patinet_id) public view returns(string[] memory){\n      string[] memory Nom_=new string[](list_dossier_user[_patinet_id].length+1);\n       //uint[] memory id_=new uint[](list_dossier_user[_patinet_id].length+1);\n      for(uint  i=0;i<list_dossier_user[_patinet_id].length;i++){\n        Nom_[i]=list_dossier_user[_patinet_id][i].NomDossier;\n      //  id_[i]=list_dossier_user[_patinet_id][i].id;\n      }\n      return (Nom_);\n    }\n      function GetAllDossierId(uint _patinet_id) public view returns(uint[] memory){\n      //string[] memory Nom_=new string[](list_dossier_user[_patinet_id].length+1);\n       uint[] memory id_=new uint[](list_dossier_user[_patinet_id].length+1);\n      for(uint  i=0;i<list_dossier_user[_patinet_id].length;i++){\n        //Nom_[i]=list_dossier_user[_patinet_id][i].NomDossier;\n        id_[i]=list_dossier_user[_patinet_id][i].id;\n      }\n      return (id_);\n    }\n}",
  "sourcePath": "/home/kali/Desktop/blockchain/test/e-health_blockchain/contracts/DossierMedicale.sol",
  "compiler": {
    "name": "solc",
    "version": "0.5.16+commit.9c3226ce.Emscripten.clang"
  },
  "schemaVersion": "3.4.1",
  "updatedAt": "2021-06-28T21:58:08.812Z",
  "networkType": "ethereum",
  "devdoc": {
    "methods": {}
  },
  "userdoc": {
    "methods": {}
  }
}