{
  "contractName": "DossierMedicale",
  "abi": [
    {
      "constant": true,
      "inputs": [
        {
          "internalType": "uint256",
          "name": "",
          "type": "uint256"
        },
        {
          "internalType": "uint256",
          "name": "",
          "type": "uint256"
        }
      ],
      "name": "list_dossier_user",
      "outputs": [
        {
          "internalType": "uint256",
          "name": "id",
          "type": "uint256"
        },
        {
          "internalType": "uint256",
          "name": "patient_id",
          "type": "uint256"
        },
        {
          "internalType": "string",
          "name": "hash_file",
          "type": "string"
        },
        {
          "internalType": "string",
          "name": "policy",
          "type": "string"
        }
      ],
      "payable": false,
      "stateMutability": "view",
      "type": "function"
    },
    {
      "constant": false,
      "inputs": [
        {
          "internalType": "uint256",
          "name": "_patient_id",
          "type": "uint256"
        },
        {
          "internalType": "string",
          "name": "_hash_file",
          "type": "string"
        },
        {
          "internalType": "string",
          "name": "_policy",
          "type": "string"
        }
      ],
      "name": "setUserDossier",
      "outputs": [
        {
          "internalType": "bool",
          "name": "",
          "type": "bool"
        }
      ],
      "payable": false,
      "stateMutability": "nonpayable",
      "type": "function"
    },
    {
      "constant": false,
      "inputs": [
        {
          "internalType": "uint256",
          "name": "_patient_id",
          "type": "uint256"
        },
        {
          "internalType": "uint256",
          "name": "_dossier_id",
          "type": "uint256"
        },
        {
          "internalType": "string",
          "name": "_hash_file",
          "type": "string"
        }
      ],
      "name": "setHashFile",
      "outputs": [
        {
          "internalType": "bool",
          "name": "",
          "type": "bool"
        }
      ],
      "payable": false,
      "stateMutability": "nonpayable",
      "type": "function"
    },
    {
      "constant": true,
      "inputs": [
        {
          "internalType": "uint256",
          "name": "_patient_id",
          "type": "uint256"
        },
        {
          "internalType": "uint256",
          "name": "_dossier_id",
          "type": "uint256"
        }
      ],
      "name": "GetUserDossier",
      "outputs": [
        {
          "internalType": "uint256",
          "name": "",
          "type": "uint256"
        },
        {
          "internalType": "string",
          "name": "",
          "type": "string"
        },
        {
          "internalType": "string",
          "name": "",
          "type": "string"
        }
      ],
      "payable": false,
      "stateMutability": "view",
      "type": "function"
    },
    {
      "constant": true,
      "inputs": [
        {
          "internalType": "uint256",
          "name": "_patinet_id",
          "type": "uint256"
        }
      ],
      "name": "GetAllDossier",
      "outputs": [
        {
          "internalType": "string[]",
          "name": "",
          "type": "string[]"
        },
        {
          "internalType": "uint256[]",
          "name": "",
          "type": "uint256[]"
        }
      ],
      "payable": false,
      "stateMutability": "view",
      "type": "function"
    }
  ],
  "bytecode": "0x608060405234801561001057600080fd5b50610f4a806100206000396000f3fe608060405234801561001057600080fd5b50600436106100575760003560e01c80634cf5d53c1461005c5780635fedb9301461008e57806369743879146100bf5780639d40a99a146100f2578063cd7c02c014610122575b600080fd5b61007660048036036100719190810190610a20565b610152565b60405161008593929190610cec565b60405180910390f35b6100a860048036036100a39190810190610978565b610327565b6040516100b6929190610c9a565b60405180910390f35b6100d960048036036100d49190810190610a20565b61052a565b6040516100e99493929190610d31565b60405180910390f35b61010c60048036036101079190810190610a5c565b6106a4565b6040516101199190610cd1565b60405180910390f35b61013c600480360361013791908101906109a1565b6106f4565b6040516101499190610cd1565b60405180910390f35b6000606080600080868152602001908152602001600020848154811061017457fe5b90600052602060002090600402016000015460008087815260200190815260200160002085815481106101a357fe5b906000526020600020906004020160020160008088815260200190815260200160002086815481106101d157fe5b9060005260206000209060040201600301818054600181600116156101000203166002900480601f0160208091040260200160405190810160405280929190818152602001828054600181600116156101000203166002900480156102775780601f1061024c57610100808354040283529160200191610277565b820191906000526020600020905b81548152906001019060200180831161025a57829003601f168201915b50505050509150808054600181600116156101000203166002900480601f0160208091040260200160405190810160405280929190818152602001828054600181600116156101000203166002900480156103135780601f106102e857610100808354040283529160200191610313565b820191906000526020600020905b8154815290600101906020018083116102f657829003601f168201915b505050505090509250925092509250925092565b60608060606001600080868152602001908152602001600020805490500160405190808252806020026020018201604052801561037857816020015b60608152602001906001900390816103635790505b5090506060600160008087815260200190815260200160002080549050016040519080825280602002602001820160405280156103c45781602001602082028038833980820191505090505b50905060008090505b6000808781526020019081526020016000208054905081101561051c57600080878152602001908152602001600020818154811061040757fe5b90600052602060002090600402016000015482828151811061042557fe5b602002602001018181525050600080878152602001908152602001600020818154811061044e57fe5b90600052602060002090600402016002018054600181600116156101000203166002900480601f0160208091040260200160405190810160405280929190818152602001828054600181600116156101000203166002900480156104f35780601f106104c8576101008083540402835291602001916104f3565b820191906000526020600020905b8154815290600101906020018083116104d657829003601f168201915b505050505083828151811061050457fe5b602002602001018190525080806001019150506103cd565b508181935093505050915091565b6000602052816000526040600020818154811061054357fe5b906000526020600020906004020160009150915050806000015490806001015490806002018054600181600116156101000203166002900480601f0160208091040260200160405190810160405280929190818152602001828054600181600116156101000203166002900480156105fc5780601f106105d1576101008083540402835291602001916105fc565b820191906000526020600020905b8154815290600101906020018083116105df57829003601f168201915b505050505090806003018054600181600116156101000203166002900480601f01602080910402602001604051908101604052809291908181526020018280546001816001161561010002031660029004801561069a5780601f1061066f5761010080835404028352916020019161069a565b820191906000526020600020905b81548152906001019060200180831161067d57829003601f168201915b5050505050905084565b60008160008086815260200190815260200160002084815481106106c457fe5b906000526020600020906004020160020190805190602001906106e89291906107ea565b50600190509392505050565b600080600160008087815260200190815260200160002060405180608001604052806000815260200188815260200187815260200186815250908060018154018082558091505090600182039060005260206000209060040201600090919290919091506000820151816000015560208201518160010155604082015181600201908051906020019061078892919061086a565b5060608201518160030190805190602001906107a592919061086a565b5050500390508060008087815260200190815260200160002082815481106107c957fe5b90600052602060002090600402016000018190555060019150509392505050565b828054600181600116156101000203166002900490600052602060002090601f016020900481019282601f1061082b57805160ff1916838001178555610859565b82800160010185558215610859579182015b8281111561085857825182559160200191906001019061083d565b5b50905061086691906108ea565b5090565b828054600181600116156101000203166002900490600052602060002090601f016020900481019282601f106108ab57805160ff19168380011785556108d9565b828001600101855582156108d9579182015b828111156108d85782518255916020019190600101906108bd565b5b5090506108e691906108ea565b5090565b61090c91905b808211156109085760008160009055506001016108f0565b5090565b90565b600082601f83011261092057600080fd5b813561093361092e82610db1565b610d84565b9150808252602083016020830185838301111561094f57600080fd5b61095a838284610e9d565b50505092915050565b60008135905061097281610ef0565b92915050565b60006020828403121561098a57600080fd5b600061099884828501610963565b91505092915050565b6000806000606084860312156109b657600080fd5b60006109c486828701610963565b935050602084013567ffffffffffffffff8111156109e157600080fd5b6109ed8682870161090f565b925050604084013567ffffffffffffffff811115610a0a57600080fd5b610a168682870161090f565b9150509250925092565b60008060408385031215610a3357600080fd5b6000610a4185828601610963565b9250506020610a5285828601610963565b9150509250929050565b600080600060608486031215610a7157600080fd5b6000610a7f86828701610963565b9350506020610a9086828701610963565b925050604084013567ffffffffffffffff811115610aad57600080fd5b610ab98682870161090f565b9150509250925092565b6000610acf8383610c0a565b905092915050565b6000610ae38383610c7c565b60208301905092915050565b6000610afa82610dfd565b610b048185610e43565b935083602082028501610b1685610ddd565b8060005b85811015610b525784840389528151610b338582610ac3565b9450610b3e83610e29565b925060208a01995050600181019050610b1a565b50829750879550505050505092915050565b6000610b6f82610e08565b610b798185610e54565b9350610b8483610ded565b8060005b83811015610bb5578151610b9c8882610ad7565b9750610ba783610e36565b925050600181019050610b88565b5085935050505092915050565b610bcb81610e87565b82525050565b6000610bdc82610e1e565b610be68185610e76565b9350610bf6818560208601610eac565b610bff81610edf565b840191505092915050565b6000610c1582610e13565b610c1f8185610e65565b9350610c2f818560208601610eac565b610c3881610edf565b840191505092915050565b6000610c4e82610e13565b610c588185610e76565b9350610c68818560208601610eac565b610c7181610edf565b840191505092915050565b610c8581610e93565b82525050565b610c9481610e93565b82525050565b60006040820190508181036000830152610cb48185610aef565b90508181036020830152610cc88184610b64565b90509392505050565b6000602082019050610ce66000830184610bc2565b92915050565b6000606082019050610d016000830186610c8b565b8181036020830152610d138185610bd1565b90508181036040830152610d278184610bd1565b9050949350505050565b6000608082019050610d466000830187610c8b565b610d536020830186610c8b565b8181036040830152610d658185610c43565b90508181036060830152610d798184610c43565b905095945050505050565b6000604051905081810181811067ffffffffffffffff82111715610da757600080fd5b8060405250919050565b600067ffffffffffffffff821115610dc857600080fd5b601f19601f8301169050602081019050919050565b6000819050602082019050919050565b6000819050602082019050919050565b600081519050919050565b600081519050919050565b600081519050919050565b600081519050919050565b6000602082019050919050565b6000602082019050919050565b600082825260208201905092915050565b600082825260208201905092915050565b600082825260208201905092915050565b600082825260208201905092915050565b60008115159050919050565b6000819050919050565b82818337600083830152505050565b60005b83811015610eca578082015181840152602081019050610eaf565b83811115610ed9576000848401525b50505050565b6000601f19601f8301169050919050565b610ef981610e93565b8114610f0457600080fd5b5056fea365627a7a72315820851f032354511f06c77891c8b843c82f2692922a759e8d63210ac510e6d3da5c6c6578706572696d656e74616cf564736f6c63430005100040",
  "source": "pragma solidity ^0.5.16;\npragma experimental ABIEncoderV2;\n\ncontract DossierMedicale {\n    struct Dossier {\n        uint id;\n        uint patient_id;\n        /*  string email_medecin;*/\n        string hash_file;\n        string policy;\n    }\n\n    mapping(uint /* user_id */ => Dossier[] ) public list_dossier_user;\n\n    function setUserDossier(uint _patient_id,string memory _hash_file,string memory _policy) public  returns(bool){\n     uint id= list_dossier_user[_patient_id].push(Dossier(0,_patient_id,_hash_file,_policy)) -1; \n     list_dossier_user[_patient_id][id].id=id;\n     return true;     \n    }\n    function setHashFile(uint _patient_id,uint _dossier_id,string memory _hash_file) public  returns(bool){\n     list_dossier_user[_patient_id][_dossier_id].hash_file=_hash_file;\n     return true;     \n    }\n    function GetUserDossier(uint _patient_id,uint _dossier_id) public view returns(uint ,string memory ,string memory ){\n      return (list_dossier_user[_patient_id][_dossier_id].id,list_dossier_user[_patient_id][_dossier_id].hash_file,list_dossier_user[_patient_id][_dossier_id].policy);     \n    }\n    function GetAllDossier(uint _patinet_id) public view returns(string[] memory,uint[] memory){\n      string[] memory hash_=new string[](list_dossier_user[_patinet_id].length+1);\n       uint[] memory id_=new uint[](list_dossier_user[_patinet_id].length+1);\n      for(uint  i=0;i<list_dossier_user[_patinet_id].length;i++){\n        id_[i]=list_dossier_user[_patinet_id][i].id;\n        hash_[i]=list_dossier_user[_patinet_id][i].hash_file;\n      }\n      return (hash_,id_);\n    }\n  \n\n}",
  "sourcePath": "/home/kali/Desktop/blockchain/test/e-health_blockchain/contracts/DossierMedicale.sol",
  "compiler": {
    "name": "solc",
    "version": "0.5.16+commit.9c3226ce.Emscripten.clang"
  },
  "schemaVersion": "3.4.1",
  "updatedAt": "2021-06-25T23:02:11.365Z",
  "networkType": "ethereum",
  "devdoc": {
    "methods": {}
  },
  "userdoc": {
    "methods": {}
  }
}