{
  "contractName": "DossierMedicale",
  "abi": [
    {
      "constant": true,
      "inputs": [
        {
          "internalType": "uint256",
          "name": "",
          "type": "uint256"
        },
        {
          "internalType": "uint256",
          "name": "",
          "type": "uint256"
        }
      ],
      "name": "list_dossier_user",
      "outputs": [
        {
          "internalType": "uint256",
          "name": "id",
          "type": "uint256"
        },
        {
          "internalType": "string",
          "name": "NomDossier",
          "type": "string"
        },
        {
          "internalType": "string",
          "name": "hash_file",
          "type": "string"
        },
        {
          "internalType": "string",
          "name": "policy",
          "type": "string"
        }
      ],
      "payable": false,
      "stateMutability": "view",
      "type": "function"
    },
    {
      "constant": false,
      "inputs": [
        {
          "internalType": "uint256",
          "name": "_patient_id",
          "type": "uint256"
        },
        {
          "internalType": "string",
          "name": "_NomDossier",
          "type": "string"
        },
        {
          "internalType": "string",
          "name": "_hash_file",
          "type": "string"
        },
        {
          "internalType": "string",
          "name": "_policy",
          "type": "string"
        }
      ],
      "name": "CreerDossier",
      "outputs": [
        {
          "internalType": "bool",
          "name": "",
          "type": "bool"
        }
      ],
      "payable": false,
      "stateMutability": "nonpayable",
      "type": "function"
    },
    {
      "constant": false,
      "inputs": [
        {
          "internalType": "uint256",
          "name": "_patient_id",
          "type": "uint256"
        },
        {
          "internalType": "uint256",
          "name": "_dossier_id",
          "type": "uint256"
        },
        {
          "internalType": "string",
          "name": "_hash_file",
          "type": "string"
        }
      ],
      "name": "setHashNewDossier",
      "outputs": [
        {
          "internalType": "bool",
          "name": "",
          "type": "bool"
        }
      ],
      "payable": false,
      "stateMutability": "nonpayable",
      "type": "function"
    },
    {
      "constant": true,
      "inputs": [
        {
          "internalType": "uint256",
          "name": "_patient_id",
          "type": "uint256"
        },
        {
          "internalType": "uint256",
          "name": "_dossier_id",
          "type": "uint256"
        }
      ],
      "name": "GetPatientDossier",
      "outputs": [
        {
          "internalType": "uint256",
          "name": "",
          "type": "uint256"
        },
        {
          "internalType": "string",
          "name": "",
          "type": "string"
        },
        {
          "internalType": "string",
          "name": "",
          "type": "string"
        },
        {
          "internalType": "string",
          "name": "",
          "type": "string"
        }
      ],
      "payable": false,
      "stateMutability": "view",
      "type": "function"
    },
    {
      "constant": true,
      "inputs": [
        {
          "internalType": "uint256",
          "name": "_patinet_id",
          "type": "uint256"
        }
      ],
      "name": "GetAllDossier",
      "outputs": [
        {
          "internalType": "string[]",
          "name": "",
          "type": "string[]"
        },
        {
          "internalType": "uint256[]",
          "name": "",
          "type": "uint256[]"
        }
      ],
      "payable": false,
      "stateMutability": "view",
      "type": "function"
    }
  ],
  "bytecode": "0x608060405234801561001057600080fd5b5061110f806100206000396000f3fe608060405234801561001057600080fd5b50600436106100575760003560e01c80631d9758951461005c5780635a21ce661461008f5780635fedb930146100bf57806362f18f50146100f05780636974387914610120575b600080fd5b61007660048036036100719190810190610bc9565b610153565b6040516100869493929190610e95565b60405180910390f35b6100a960048036036100a49190810190610c05565b6103f8565b6040516100b69190610e7a565b60405180910390f35b6100d960048036036100d49190810190610af5565b610448565b6040516100e7929190610e43565b60405180910390f35b61010a60048036036101059190810190610b1e565b61064b565b6040516101179190610e7a565b60405180910390f35b61013a60048036036101359190810190610bc9565b610755565b60405161014a9493929190610eef565b60405180910390f35b60006060806060600080878152602001908152602001600020858154811061017757fe5b90600052602060002090600402016000015460008088815260200190815260200160002086815481106101a657fe5b906000526020600020906004020160010160008089815260200190815260200160002087815481106101d457fe5b90600052602060002090600402016002016000808a8152602001908152602001600020888154811061020257fe5b9060005260206000209060040201600301828054600181600116156101000203166002900480601f0160208091040260200160405190810160405280929190818152602001828054600181600116156101000203166002900480156102a85780601f1061027d576101008083540402835291602001916102a8565b820191906000526020600020905b81548152906001019060200180831161028b57829003601f168201915b50505050509250818054600181600116156101000203166002900480601f0160208091040260200160405190810160405280929190818152602001828054600181600116156101000203166002900480156103445780601f1061031957610100808354040283529160200191610344565b820191906000526020600020905b81548152906001019060200180831161032757829003601f168201915b50505050509150808054600181600116156101000203166002900480601f0160208091040260200160405190810160405280929190818152602001828054600181600116156101000203166002900480156103e05780601f106103b5576101008083540402835291602001916103e0565b820191906000526020600020905b8154815290600101906020018083116103c357829003601f168201915b50505050509050935093509350935092959194509250565b600081600080868152602001908152602001600020848154811061041857fe5b9060005260206000209060040201600201908051906020019061043c929190610967565b50600190509392505050565b60608060606001600080868152602001908152602001600020805490500160405190808252806020026020018201604052801561049957816020015b60608152602001906001900390816104845790505b5090506060600160008087815260200190815260200160002080549050016040519080825280602002602001820160405280156104e55781602001602082028038833980820191505090505b50905060008090505b6000808781526020019081526020016000208054905081101561063d57600080878152602001908152602001600020818154811061052857fe5b90600052602060002090600402016000015482828151811061054657fe5b602002602001018181525050600080878152602001908152602001600020818154811061056f57fe5b90600052602060002090600402016002018054600181600116156101000203166002900480601f0160208091040260200160405190810160405280929190818152602001828054600181600116156101000203166002900480156106145780601f106105e957610100808354040283529160200191610614565b820191906000526020600020905b8154815290600101906020018083116105f757829003601f168201915b505050505083828151811061062557fe5b602002602001018190525080806001019150506104ee565b508181935093505050915091565b600080600160008088815260200190815260200160002060405180608001604052806000815260200188815260200187815260200186815250908060018154018082558091505090600182039060005260206000209060040201600090919290919091506000820151816000015560208201518160010190805190602001906106d59291906109e7565b5060408201518160020190805190602001906106f29291906109e7565b50606082015181600301908051906020019061070f9291906109e7565b50505003905080600080888152602001908152602001600020828154811061073357fe5b9060005260206000209060040201600001819055506001915050949350505050565b6000602052816000526040600020818154811061076e57fe5b906000526020600020906004020160009150915050806000015490806001018054600181600116156101000203166002900480601f0160208091040260200160405190810160405280929190818152602001828054600181600116156101000203166002900480156108215780601f106107f657610100808354040283529160200191610821565b820191906000526020600020905b81548152906001019060200180831161080457829003601f168201915b505050505090806002018054600181600116156101000203166002900480601f0160208091040260200160405190810160405280929190818152602001828054600181600116156101000203166002900480156108bf5780601f10610894576101008083540402835291602001916108bf565b820191906000526020600020905b8154815290600101906020018083116108a257829003601f168201915b505050505090806003018054600181600116156101000203166002900480601f01602080910402602001604051908101604052809291908181526020018280546001816001161561010002031660029004801561095d5780601f106109325761010080835404028352916020019161095d565b820191906000526020600020905b81548152906001019060200180831161094057829003601f168201915b5050505050905084565b828054600181600116156101000203166002900490600052602060002090601f016020900481019282601f106109a857805160ff19168380011785556109d6565b828001600101855582156109d6579182015b828111156109d55782518255916020019190600101906109ba565b5b5090506109e39190610a67565b5090565b828054600181600116156101000203166002900490600052602060002090601f016020900481019282601f10610a2857805160ff1916838001178555610a56565b82800160010185558215610a56579182015b82811115610a55578251825591602001919060010190610a3a565b5b509050610a639190610a67565b5090565b610a8991905b80821115610a85576000816000905550600101610a6d565b5090565b90565b600082601f830112610a9d57600080fd5b8135610ab0610aab82610f76565b610f49565b91508082526020830160208301858383011115610acc57600080fd5b610ad7838284611062565b50505092915050565b600081359050610aef816110b5565b92915050565b600060208284031215610b0757600080fd5b6000610b1584828501610ae0565b91505092915050565b60008060008060808587031215610b3457600080fd5b6000610b4287828801610ae0565b945050602085013567ffffffffffffffff811115610b5f57600080fd5b610b6b87828801610a8c565b935050604085013567ffffffffffffffff811115610b8857600080fd5b610b9487828801610a8c565b925050606085013567ffffffffffffffff811115610bb157600080fd5b610bbd87828801610a8c565b91505092959194509250565b60008060408385031215610bdc57600080fd5b6000610bea85828601610ae0565b9250506020610bfb85828601610ae0565b9150509250929050565b600080600060608486031215610c1a57600080fd5b6000610c2886828701610ae0565b9350506020610c3986828701610ae0565b925050604084013567ffffffffffffffff811115610c5657600080fd5b610c6286828701610a8c565b9150509250925092565b6000610c788383610db3565b905092915050565b6000610c8c8383610e25565b60208301905092915050565b6000610ca382610fc2565b610cad8185611008565b935083602082028501610cbf85610fa2565b8060005b85811015610cfb5784840389528151610cdc8582610c6c565b9450610ce783610fee565b925060208a01995050600181019050610cc3565b50829750879550505050505092915050565b6000610d1882610fcd565b610d228185611019565b9350610d2d83610fb2565b8060005b83811015610d5e578151610d458882610c80565b9750610d5083610ffb565b925050600181019050610d31565b5085935050505092915050565b610d748161104c565b82525050565b6000610d8582610fe3565b610d8f818561103b565b9350610d9f818560208601611071565b610da8816110a4565b840191505092915050565b6000610dbe82610fd8565b610dc8818561102a565b9350610dd8818560208601611071565b610de1816110a4565b840191505092915050565b6000610df782610fd8565b610e01818561103b565b9350610e11818560208601611071565b610e1a816110a4565b840191505092915050565b610e2e81611058565b82525050565b610e3d81611058565b82525050565b60006040820190508181036000830152610e5d8185610c98565b90508181036020830152610e718184610d0d565b90509392505050565b6000602082019050610e8f6000830184610d6b565b92915050565b6000608082019050610eaa6000830187610e34565b8181036020830152610ebc8186610d7a565b90508181036040830152610ed08185610d7a565b90508181036060830152610ee48184610d7a565b905095945050505050565b6000608082019050610f046000830187610e34565b8181036020830152610f168186610dec565b90508181036040830152610f2a8185610dec565b90508181036060830152610f3e8184610dec565b905095945050505050565b6000604051905081810181811067ffffffffffffffff82111715610f6c57600080fd5b8060405250919050565b600067ffffffffffffffff821115610f8d57600080fd5b601f19601f8301169050602081019050919050565b6000819050602082019050919050565b6000819050602082019050919050565b600081519050919050565b600081519050919050565b600081519050919050565b600081519050919050565b6000602082019050919050565b6000602082019050919050565b600082825260208201905092915050565b600082825260208201905092915050565b600082825260208201905092915050565b600082825260208201905092915050565b60008115159050919050565b6000819050919050565b82818337600083830152505050565b60005b8381101561108f578082015181840152602081019050611074565b8381111561109e576000848401525b50505050565b6000601f19601f8301169050919050565b6110be81611058565b81146110c957600080fd5b5056fea365627a7a7231582036b68d037dbd65151f12a7abd261755010d0cd9bcae848c74eb518b7009ef4e56c6578706572696d656e74616cf564736f6c63430005100040",
  "source": "pragma solidity ^0.5.16;\npragma experimental ABIEncoderV2;\n\ncontract DossierMedicale {\n    \n    struct Dossier {\n        uint id;\n        string NomDossier;\n        string hash_file;\n        string policy;\n    }\n\n    mapping(uint /* Patient_id */ => Dossier[] ) public list_dossier_user;\n\n    function CreerDossier(uint _patient_id,string memory _NomDossier,string memory _hash_file,string memory _policy) public  returns(bool){\n     uint id= list_dossier_user[_patient_id].push(Dossier(0,_NomDossier,_hash_file,_policy)) -1; \n     list_dossier_user[_patient_id][id].id=id;\n     return true;     \n    }\n    function setHashNewDossier(uint _patient_id,uint _dossier_id,string memory _hash_file) public  returns(bool){\n     list_dossier_user[_patient_id][_dossier_id].hash_file=_hash_file;\n     return true;     \n    }\n    function GetPatientDossier(uint _patient_id,uint _dossier_id) public view returns(uint ,string memory,string memory ,string memory ){\n      return (list_dossier_user[_patient_id][_dossier_id].id\n                ,list_dossier_user[_patient_id][_dossier_id].NomDossier\n                ,list_dossier_user[_patient_id][_dossier_id].hash_file\n                ,list_dossier_user[_patient_id][_dossier_id].policy);     \n    }\n    function GetAllDossier(uint _patinet_id) public view returns(string[] memory,uint[] memory){\n      string[] memory hash_=new string[](list_dossier_user[_patinet_id].length+1);\n       uint[] memory id_=new uint[](list_dossier_user[_patinet_id].length+1);\n      for(uint  i=0;i<list_dossier_user[_patinet_id].length;i++){\n        id_[i]=list_dossier_user[_patinet_id][i].id;\n        hash_[i]=list_dossier_user[_patinet_id][i].hash_file;\n      }\n      return (hash_,id_);\n    }\n}",
  "sourcePath": "/home/mehalanis/Téléchargements/e-health_blockchain/contracts/DossierMedicale.sol",
  "compiler": {
    "name": "solc",
    "version": "0.5.16+commit.9c3226ce.Emscripten.clang"
  },
  "schemaVersion": "3.4.1",
  "updatedAt": "2021-06-28T17:31:22.925Z",
  "networkType": "ethereum",
  "devdoc": {
    "methods": {}
  },
  "userdoc": {
    "methods": {}
  }
}