{
  "contractName": "DossierMedicale",
  "abi": [
    {
      "constant": true,
      "inputs": [
        {
          "internalType": "uint256",
          "name": "",
          "type": "uint256"
        }
      ],
      "name": "dossier",
      "outputs": [
        {
          "internalType": "uint256",
          "name": "id",
          "type": "uint256"
        },
        {
          "internalType": "uint256",
          "name": "patient_id",
          "type": "uint256"
        },
        {
          "internalType": "string",
          "name": "Text",
          "type": "string"
        }
      ],
      "payable": false,
      "stateMutability": "view",
      "type": "function"
    },
    {
      "constant": true,
      "inputs": [
        {
          "internalType": "uint256",
          "name": "",
          "type": "uint256"
        }
      ],
      "name": "list_dossier_user",
      "outputs": [
        {
          "internalType": "uint256",
          "name": "id",
          "type": "uint256"
        },
        {
          "internalType": "uint256",
          "name": "patient_id",
          "type": "uint256"
        },
        {
          "internalType": "string",
          "name": "Text",
          "type": "string"
        }
      ],
      "payable": false,
      "stateMutability": "view",
      "type": "function"
    },
    {
      "constant": false,
      "inputs": [
        {
          "internalType": "uint256",
          "name": "_patient_id",
          "type": "uint256"
        },
        {
          "internalType": "string",
          "name": "_Text",
          "type": "string"
        }
      ],
      "name": "setUserDossier",
      "outputs": [
        {
          "internalType": "bool",
          "name": "",
          "type": "bool"
        }
      ],
      "payable": false,
      "stateMutability": "nonpayable",
      "type": "function"
    },
    {
      "constant": true,
      "inputs": [
        {
          "internalType": "uint256",
          "name": "_patient_id",
          "type": "uint256"
        }
      ],
      "name": "GetUserDossier",
      "outputs": [
        {
          "internalType": "string",
          "name": "text",
          "type": "string"
        }
      ],
      "payable": false,
      "stateMutability": "view",
      "type": "function"
    }
  ],
  "bytecode": "0x608060405234801561001057600080fd5b50610805806100206000396000f3fe608060405234801561001057600080fd5b506004361061004c5760003560e01c806334395ec4146100515780635af423331461012e5780638da1a43c146101e3578063e5da59ea14610298575b600080fd5b6101146004803603604081101561006757600080fd5b81019080803590602001909291908035906020019064010000000081111561008e57600080fd5b8201836020820111156100a057600080fd5b803590602001918460018302840111640100000000831117156100c257600080fd5b91908080601f016020809104026020016040519081016040528093929190818152602001838380828437600081840152601f19601f82011690508083019250505050505050919291929050505061033f565b604051808215151515815260200191505060405180910390f35b61015a6004803603602081101561014457600080fd5b810190808035906020019092919050505061045c565b6040518084815260200183815260200180602001828103825283818151815260200191508051906020019080838360005b838110156101a657808201518184015260208101905061018b565b50505050905090810190601f1680156101d35780820380516001836020036101000a031916815260200191505b5094505050505060405180910390f35b61020f600480360360208110156101f957600080fd5b810190808035906020019092919050505061052b565b6040518084815260200183815260200180602001828103825283818151815260200191508051906020019080838360005b8381101561025b578082015181840152602081019050610240565b50505050905090810190601f1680156102885780820380516001836020036101000a031916815260200191505b5094505050505060405180910390f35b6102c4600480360360208110156102ae57600080fd5b81019080803590602001909291905050506105ed565b6040518080602001828103825283818151815260200191508051906020019080838360005b838110156103045780820151818401526020810190506102e9565b50505050905090810190601f1680156103315780820380516001836020036101000a031916815260200191505b509250505060405180910390f35b6000806001806040518060600160405280600081526020018781526020018681525090806001815401808255809150509060018203906000526020600020906003020160009091929091909150600082015181600001556020820151816001015560408201518160020190805190602001906103bc9291906106a4565b50505003905080600182815481106103d057fe5b906000526020600020906003020160000181905550600181815481106103f257fe5b906000526020600020906003020160008083815260200190815260200160002060008201548160000155600182015481600101556002820181600201908054600181600116156101000203166002900461044d929190610724565b50905050600191505092915050565b6001818154811061046957fe5b9060005260206000209060030201600091509050806000015490806001015490806002018054600181600116156101000203166002900480601f0160208091040260200160405190810160405280929190818152602001828054600181600116156101000203166002900480156105215780601f106104f657610100808354040283529160200191610521565b820191906000526020600020905b81548152906001019060200180831161050457829003601f168201915b5050505050905083565b6000602052806000526040600020600091509050806000015490806001015490806002018054600181600116156101000203166002900480601f0160208091040260200160405190810160405280929190818152602001828054600181600116156101000203166002900480156105e35780601f106105b8576101008083540402835291602001916105e3565b820191906000526020600020905b8154815290600101906020018083116105c657829003601f168201915b5050505050905083565b60606000808381526020019081526020016000206002018054600181600116156101000203166002900480601f0160208091040260200160405190810160405280929190818152602001828054600181600116156101000203166002900480156106985780601f1061066d57610100808354040283529160200191610698565b820191906000526020600020905b81548152906001019060200180831161067b57829003601f168201915b50505050509050919050565b828054600181600116156101000203166002900490600052602060002090601f016020900481019282601f106106e557805160ff1916838001178555610713565b82800160010185558215610713579182015b828111156107125782518255916020019190600101906106f7565b5b50905061072091906107ab565b5090565b828054600181600116156101000203166002900490600052602060002090601f016020900481019282601f1061075d578054855561079a565b8280016001018555821561079a57600052602060002091601f016020900482015b8281111561079957825482559160010191906001019061077e565b5b5090506107a791906107ab565b5090565b6107cd91905b808211156107c95760008160009055506001016107b1565b5090565b9056fea265627a7a72315820ef4283928a1b4ddb53301813f93cea7a6b19ca0fc04d1897aadef337927cb53d64736f6c63430005100032",
  "source": "pragma solidity ^0.5.16;\ncontract DossierMedicale {\n    struct Dossier {\n        uint id;\n        uint patient_id;\n      /*  string email_medecin;*/\n        string Text;\n    }\n    \n    mapping(uint /* user_id */ => Dossier ) public list_dossier_user;\n    Dossier[] public dossier;\n    function setUserDossier(uint _patient_id,string memory _Text) public  returns(bool){\n     uint id= dossier.push(Dossier(0,_patient_id,_Text)) -1; \n     dossier[id].id=id;\n     list_dossier_user[id]=dossier[id];\n     return true;     \n    }\n    function GetUserDossier(uint _patient_id) public view returns(string memory text){\n      return list_dossier_user[_patient_id].Text;     \n    }\n    \n\n}",
  "sourcePath": "/home/mehalanis/Téléchargements/testLogin/contracts/DossierMedicale.sol",
  "compiler": {
    "name": "solc",
    "version": "0.5.16+commit.9c3226ce.Emscripten.clang"
  },
  "schemaVersion": "3.4.1",
  "updatedAt": "2021-06-04T22:08:20.830Z",
  "networkType": "ethereum",
  "devdoc": {
    "methods": {}
  },
  "userdoc": {
    "methods": {}
  }
}