{
  "contractName": "Medecin",
  "abi": [
    {
      "constant": true,
      "inputs": [
        {
          "internalType": "string",
          "name": "",
          "type": "string"
        }
      ],
      "name": "list_email_medecin",
      "outputs": [
        {
          "internalType": "uint256",
          "name": "id",
          "type": "uint256"
        },
        {
          "internalType": "string",
          "name": "email",
          "type": "string"
        },
        {
          "internalType": "string",
          "name": "password",
          "type": "string"
        }
      ],
      "payable": false,
      "stateMutability": "view",
      "type": "function"
    },
    {
      "constant": true,
      "inputs": [
        {
          "internalType": "uint256",
          "name": "",
          "type": "uint256"
        }
      ],
      "name": "list_id_medecin",
      "outputs": [
        {
          "internalType": "uint256",
          "name": "id",
          "type": "uint256"
        },
        {
          "internalType": "string",
          "name": "email",
          "type": "string"
        },
        {
          "internalType": "string",
          "name": "password",
          "type": "string"
        }
      ],
      "payable": false,
      "stateMutability": "view",
      "type": "function"
    },
    {
      "constant": true,
      "inputs": [
        {
          "internalType": "uint256",
          "name": "",
          "type": "uint256"
        }
      ],
      "name": "medecins",
      "outputs": [
        {
          "internalType": "uint256",
          "name": "id",
          "type": "uint256"
        },
        {
          "internalType": "string",
          "name": "email",
          "type": "string"
        },
        {
          "internalType": "string",
          "name": "password",
          "type": "string"
        }
      ],
      "payable": false,
      "stateMutability": "view",
      "type": "function"
    },
    {
      "constant": false,
      "inputs": [
        {
          "internalType": "string",
          "name": "_email",
          "type": "string"
        },
        {
          "internalType": "string",
          "name": "_password",
          "type": "string"
        }
      ],
      "name": "AddMedecin",
      "outputs": [
        {
          "internalType": "bool",
          "name": "",
          "type": "bool"
        }
      ],
      "payable": false,
      "stateMutability": "nonpayable",
      "type": "function"
    },
    {
      "constant": false,
      "inputs": [
        {
          "internalType": "uint256",
          "name": "_id",
          "type": "uint256"
        },
        {
          "internalType": "string",
          "name": "_attribut",
          "type": "string"
        }
      ],
      "name": "addAttribut",
      "outputs": [
        {
          "internalType": "bool",
          "name": "",
          "type": "bool"
        }
      ],
      "payable": false,
      "stateMutability": "nonpayable",
      "type": "function"
    },
    {
      "constant": true,
      "inputs": [
        {
          "internalType": "uint256",
          "name": "_id",
          "type": "uint256"
        }
      ],
      "name": "GetAttribut",
      "outputs": [
        {
          "internalType": "string[]",
          "name": "",
          "type": "string[]"
        }
      ],
      "payable": false,
      "stateMutability": "view",
      "type": "function"
    },
    {
      "constant": true,
      "inputs": [
        {
          "internalType": "string",
          "name": "_email",
          "type": "string"
        },
        {
          "internalType": "string",
          "name": "_password",
          "type": "string"
        }
      ],
      "name": "VerifieMedecin",
      "outputs": [
        {
          "internalType": "bool",
          "name": "v",
          "type": "bool"
        },
        {
          "internalType": "uint256",
          "name": "_id",
          "type": "uint256"
        }
      ],
      "payable": false,
      "stateMutability": "view",
      "type": "function"
    },
    {
      "constant": true,
      "inputs": [
        {
          "internalType": "string",
          "name": "_email",
          "type": "string"
        }
      ],
      "name": "GetMedecin",
      "outputs": [
        {
          "internalType": "uint256",
          "name": "",
          "type": "uint256"
        },
        {
          "internalType": "string",
          "name": "",
          "type": "string"
        }
      ],
      "payable": false,
      "stateMutability": "view",
      "type": "function"
    },
    {
      "constant": true,
      "inputs": [],
      "name": "getMedecins",
      "outputs": [
        {
          "internalType": "string[]",
          "name": "",
          "type": "string[]"
        }
      ],
      "payable": false,
      "stateMutability": "view",
      "type": "function"
    }
  ],
  "bytecode": "0x608060405234801561001057600080fd5b50611700806100206000396000f3fe608060405234801561001057600080fd5b50600436106100935760003560e01c80638ee980e1116100665780638ee980e114610149578063981e77541461017b578063c13ad2fc146101ab578063c1c0534b146101dc578063c6a498e71461020c57610093565b806333cbe53e146100985780633d3e633e146100c9578063476acff9146100f95780636c311e0314610117575b600080fd5b6100b260048036036100ad9190810190611095565b61023e565b6040516100c0929190611469565b60405180910390f35b6100e360048036036100de9190810190611095565b61036c565b6040516100f0919061144e565b60405180910390f35b6101016105ff565b60405161010e919061142c565b60405180910390f35b610131600480360361012c9190810190611013565b610737565b604051610140939291906114e2565b60405180910390f35b610163600480360361015e9190810190611101565b6108a7565b604051610172939291906114e2565b60405180910390f35b61019560048036036101909190810190611101565b610a01565b6040516101a2919061142c565b60405180910390f35b6101c560048036036101c09190810190611054565b610afc565b6040516101d39291906114b2565b60405180910390f35b6101f660048036036101f1919081019061112a565b610be8565b604051610203919061144e565b60405180910390f35b61022660048036036102219190810190611101565b610c43565b604051610235939291906114e2565b60405180910390f35b6000808360405160200161025291906113e9565b6040516020818303038152906040528051906020012060028560405161027891906113e9565b90815260200160405180910390206001016040516020016102999190611400565b604051602081830303815290604052805190602001201480156103275750826040516020016102c891906113e9565b604051602081830303815290604052805190602001206002856040516102ee91906113e9565b908152602001604051809103902060020160405160200161030f9190611400565b60405160208183030381529060405280519060200120145b1561035957600160028560405161033e91906113e9565b90815260200160405180910390206000015491509150610365565b60006001809050915091505b9250929050565b600060405160200161037d90611417565b604051602081830303815290604052805190602001206002846040516103a391906113e9565b90815260200160405180910390206001016040516020016103c49190611400565b604051602081830303815290604052805190602001201461041a576040517f08c379a000000000000000000000000000000000000000000000000000000000815260040161041190611492565b60405180910390fd5b600060016003604051806060016040528060008152602001878152602001868152509080600181540180825580915050906001820390600052602060002090600302016000909192909190915060008201518160000155602082015181600101908051906020019061048d929190610daa565b5060408201518160020190805190602001906104aa929190610daa565b50505003905080600382815481106104be57fe5b906000526020600020906003020160000181905550600381815481106104e057fe5b9060005260206000209060030201600160008381526020019081526020016000206000820154816000015560018201816001019080546001816001161561010002031660029004610532929190610e2a565b506002820181600201908054600181600116156101000203166002900461055a929190610e2a565b509050506003818154811061056b57fe5b906000526020600020906003020160028560405161058991906113e9565b908152602001604051809103902060008201548160000155600182018160010190805460018160011615610100020316600290046105c8929190610e2a565b50600282018160020190805460018160011615610100020316600290046105f0929190610e2a565b50905050600191505092915050565b60608060016003805490500160405190808252806020026020018201604052801561063e57816020015b60608152602001906001900390816106295790505b50905060008090505b60038054905081101561072f576003818154811061066157fe5b90600052602060002090600302016001018054600181600116156101000203166002900480601f0160208091040260200160405190810160405280929190818152602001828054600181600116156101000203166002900480156107065780601f106106db57610100808354040283529160200191610706565b820191906000526020600020905b8154815290600101906020018083116106e957829003601f168201915b505050505082828151811061071757fe5b60200260200101819052508080600101915050610647565b508091505090565b600281805160208101820180518482526020830160208501208183528095505050505050600091509050806000015490806001018054600181600116156101000203166002900480601f0160208091040260200160405190810160405280929190818152602001828054600181600116156101000203166002900480156107ff5780601f106107d4576101008083540402835291602001916107ff565b820191906000526020600020905b8154815290600101906020018083116107e257829003601f168201915b505050505090806002018054600181600116156101000203166002900480601f01602080910402602001604051908101604052809291908181526020018280546001816001161561010002031660029004801561089d5780601f106108725761010080835404028352916020019161089d565b820191906000526020600020905b81548152906001019060200180831161088057829003601f168201915b5050505050905083565b6001602052806000526040600020600091509050806000015490806001018054600181600116156101000203166002900480601f0160208091040260200160405190810160405280929190818152602001828054600181600116156101000203166002900480156109595780601f1061092e57610100808354040283529160200191610959565b820191906000526020600020905b81548152906001019060200180831161093c57829003601f168201915b505050505090806002018054600181600116156101000203166002900480601f0160208091040260200160405190810160405280929190818152602001828054600181600116156101000203166002900480156109f75780601f106109cc576101008083540402835291602001916109f7565b820191906000526020600020905b8154815290600101906020018083116109da57829003601f168201915b5050505050905083565b6060600080838152602001908152602001600020805480602002602001604051908101604052809291908181526020016000905b82821015610af1578382906000526020600020018054600181600116156101000203166002900480601f016020809104026020016040519081016040528092919081815260200182805460018160011615610100020316600290048015610add5780601f10610ab257610100808354040283529160200191610add565b820191906000526020600020905b815481529060010190602001808311610ac057829003601f168201915b505050505081526020019060010190610a35565b505050509050919050565b60006060600283604051610b1091906113e9565b908152602001604051809103902060000154600284604051610b3291906113e9565b9081526020016040518091039020600101808054600181600116156101000203166002900480601f016020809104026020016040519081016040528092919081815260200182805460018160011615610100020316600290048015610bd85780601f10610bad57610100808354040283529160200191610bd8565b820191906000526020600020905b815481529060010190602001808311610bbb57829003601f168201915b5050505050905091509150915091565b6000806000848152602001908152602001600020829080600181540180825580915050906001820390600052602060002001600090919290919091509080519060200190610c37929190610eb1565b50506001905092915050565b60038181548110610c5057fe5b9060005260206000209060030201600091509050806000015490806001018054600181600116156101000203166002900480601f016020809104026020016040519081016040528092919081815260200182805460018160011615610100020316600290048015610d025780601f10610cd757610100808354040283529160200191610d02565b820191906000526020600020905b815481529060010190602001808311610ce557829003601f168201915b505050505090806002018054600181600116156101000203166002900480601f016020809104026020016040519081016040528092919081815260200182805460018160011615610100020316600290048015610da05780601f10610d7557610100808354040283529160200191610da0565b820191906000526020600020905b815481529060010190602001808311610d8357829003601f168201915b5050505050905083565b828054600181600116156101000203166002900490600052602060002090601f016020900481019282601f10610deb57805160ff1916838001178555610e19565b82800160010185558215610e19579182015b82811115610e18578251825591602001919060010190610dfd565b5b509050610e269190610f31565b5090565b828054600181600116156101000203166002900490600052602060002090601f016020900481019282601f10610e635780548555610ea0565b82800160010185558215610ea057600052602060002091601f016020900482015b82811115610e9f578254825591600101919060010190610e84565b5b509050610ead9190610f31565b5090565b828054600181600116156101000203166002900490600052602060002090601f016020900481019282601f10610ef257805160ff1916838001178555610f20565b82800160010185558215610f20579182015b82811115610f1f578251825591602001919060010190610f04565b5b509050610f2d9190610f31565b5090565b610f5391905b80821115610f4f576000816000905550600101610f37565b5090565b90565b600082601f830112610f6757600080fd5b8135610f7a610f7582611554565b611527565b91508082526020830160208301858383011115610f9657600080fd5b610fa1838284611653565b50505092915050565b600082601f830112610fbb57600080fd5b8135610fce610fc982611580565b611527565b91508082526020830160208301858383011115610fea57600080fd5b610ff5838284611653565b50505092915050565b60008135905061100d816116a6565b92915050565b60006020828403121561102557600080fd5b600082013567ffffffffffffffff81111561103f57600080fd5b61104b84828501610f56565b91505092915050565b60006020828403121561106657600080fd5b600082013567ffffffffffffffff81111561108057600080fd5b61108c84828501610faa565b91505092915050565b600080604083850312156110a857600080fd5b600083013567ffffffffffffffff8111156110c257600080fd5b6110ce85828601610faa565b925050602083013567ffffffffffffffff8111156110eb57600080fd5b6110f785828601610faa565b9150509250929050565b60006020828403121561111357600080fd5b600061112184828501610ffe565b91505092915050565b6000806040838503121561113d57600080fd5b600061114b85828601610ffe565b925050602083013567ffffffffffffffff81111561116857600080fd5b61117485828601610faa565b9150509250929050565b600061118a8383611280565b905092915050565b600061119d826115d1565b6111a781856115ff565b9350836020820285016111b9856115ac565b8060005b858110156111f557848403895281516111d6858261117e565b94506111e1836115f2565b925060208a019950506001810190506111bd565b50829750879550505050505092915050565b6112108161163d565b82525050565b6000611221826115e7565b61122b8185611621565b935061123b818560208601611662565b61124481611695565b840191505092915050565b600061125a826115e7565b6112648185611632565b9350611274818560208601611662565b80840191505092915050565b600061128b826115dc565b6112958185611610565b93506112a5818560208601611662565b6112ae81611695565b840191505092915050565b60006112c4826115dc565b6112ce8185611621565b93506112de818560208601611662565b6112e781611695565b840191505092915050565b60008154600181166000811461130f576001811461133457611378565b607f60028304166113208187611632565b955060ff1983168652808601935050611378565b600282046113428187611632565b955061134d856115bc565b60005b8281101561136f57815481890152600182019150602081019050611350565b82880195505050505b505092915050565b600061138d600683611621565b91507f65727265757200000000000000000000000000000000000000000000000000006000830152602082019050919050565b60006113cd600083611632565b9150600082019050919050565b6113e381611649565b82525050565b60006113f5828461124f565b915081905092915050565b600061140c82846112f2565b915081905092915050565b6000611422826113c0565b9150819050919050565b600060208201905081810360008301526114468184611192565b905092915050565b60006020820190506114636000830184611207565b92915050565b600060408201905061147e6000830185611207565b61148b60208301846113da565b9392505050565b600060208201905081810360008301526114ab81611380565b9050919050565b60006040820190506114c760008301856113da565b81810360208301526114d98184611216565b90509392505050565b60006060820190506114f760008301866113da565b818103602083015261150981856112b9565b9050818103604083015261151d81846112b9565b9050949350505050565b6000604051905081810181811067ffffffffffffffff8211171561154a57600080fd5b8060405250919050565b600067ffffffffffffffff82111561156b57600080fd5b601f19601f8301169050602081019050919050565b600067ffffffffffffffff82111561159757600080fd5b601f19601f8301169050602081019050919050565b6000819050602082019050919050565b60008190508160005260206000209050919050565b600081519050919050565b600081519050919050565b600081519050919050565b6000602082019050919050565b600082825260208201905092915050565b600082825260208201905092915050565b600082825260208201905092915050565b600081905092915050565b60008115159050919050565b6000819050919050565b82818337600083830152505050565b60005b83811015611680578082015181840152602081019050611665565b8381111561168f576000848401525b50505050565b6000601f19601f8301169050919050565b6116af81611649565b81146116ba57600080fd5b5056fea365627a7a7231582024fa82ddf43b6211e89df7d9c17f6f4b50e3841c17837e186c42f3a0bcb5de6d6c6578706572696d656e74616cf564736f6c63430005100040",
  "source": "pragma solidity ^0.5.16;\npragma experimental ABIEncoderV2;\ncontract Medecin {\n  struct medecin {\n      uint id;\n      string email;\n      string password;\n  }\n  mapping(uint => string[]) attribut;\n  mapping(uint => medecin) public list_id_medecin;\n  mapping(string => medecin) public list_email_medecin;\n  medecin[] public medecins;\n  function AddMedecin(string memory _email,string memory _password) public  returns(bool){\n        require((keccak256(abi.encodePacked((list_email_medecin[_email].email))) == keccak256(abi.encodePacked((\"\")))),\"erreur\");\n        uint id =medecins.push(medecin(0,_email,_password)) -1;\n        medecins[id].id=id;\n        list_id_medecin[id]=medecins[id];\n        list_email_medecin[_email]=medecins[id];\n        return true;\n    }\n    function addAttribut(uint _id,string memory _attribut) public returns(bool){\n        attribut[_id].push(_attribut);\n        return true;\n    }\n    function GetAttribut(uint _id) public view returns(string[] memory){\n        return attribut[_id];\n    }\n    function VerifieMedecin(string memory _email,string memory _password) public view returns(bool v,uint _id){\n        if((keccak256(abi.encodePacked((list_email_medecin[_email].email))) == keccak256(abi.encodePacked((_email)))) &&\n        (keccak256(abi.encodePacked((list_email_medecin[_email].password))) == keccak256(abi.encodePacked((_password))))) return (true,list_email_medecin[_email].id);\n        return (false,1);\n    }\n    function GetMedecin(string memory _email) public view returns(uint,string memory){\n        return (list_email_medecin[_email].id,list_email_medecin[_email].email);\n    }\n    function getMedecins() public view returns(string[] memory){\n        string[] memory p=new string[](medecins.length+1);\n        for(uint i=0;i<medecins.length;i++){\n            p[i]=medecins[i].email;\n        }\n        return p;\n    }\n  \n}",
  "sourcePath": "/home/mehalanis/Téléchargements/e-health_blockchain/contracts/Medecin.sol",
  "compiler": {
    "name": "solc",
    "version": "0.5.16+commit.9c3226ce.Emscripten.clang"
  },
  "schemaVersion": "3.4.1",
  "updatedAt": "2021-06-27T13:57:28.647Z",
  "networkType": "ethereum",
  "devdoc": {
    "methods": {}
  },
  "userdoc": {
    "methods": {}
  }
}