{
  "contractName": "Medecin",
  "abi": [
    {
      "constant": true,
      "inputs": [
        {
          "internalType": "string",
          "name": "",
          "type": "string"
        }
      ],
      "name": "list_email_medecin",
      "outputs": [
        {
          "internalType": "uint256",
          "name": "id",
          "type": "uint256"
        },
        {
          "internalType": "string",
          "name": "email",
          "type": "string"
        },
        {
          "internalType": "string",
          "name": "password",
          "type": "string"
        }
      ],
      "payable": false,
      "stateMutability": "view",
      "type": "function"
    },
    {
      "constant": true,
      "inputs": [
        {
          "internalType": "uint256",
          "name": "",
          "type": "uint256"
        }
      ],
      "name": "list_id_medecin",
      "outputs": [
        {
          "internalType": "uint256",
          "name": "id",
          "type": "uint256"
        },
        {
          "internalType": "string",
          "name": "email",
          "type": "string"
        },
        {
          "internalType": "string",
          "name": "password",
          "type": "string"
        }
      ],
      "payable": false,
      "stateMutability": "view",
      "type": "function"
    },
    {
      "constant": true,
      "inputs": [
        {
          "internalType": "uint256",
          "name": "",
          "type": "uint256"
        }
      ],
      "name": "medecins",
      "outputs": [
        {
          "internalType": "uint256",
          "name": "id",
          "type": "uint256"
        },
        {
          "internalType": "string",
          "name": "email",
          "type": "string"
        },
        {
          "internalType": "string",
          "name": "password",
          "type": "string"
        }
      ],
      "payable": false,
      "stateMutability": "view",
      "type": "function"
    },
    {
      "constant": false,
      "inputs": [
        {
          "internalType": "string",
          "name": "_email",
          "type": "string"
        },
        {
          "internalType": "string",
          "name": "_password",
          "type": "string"
        }
      ],
      "name": "AddMedecin",
      "outputs": [
        {
          "internalType": "bool",
          "name": "",
          "type": "bool"
        }
      ],
      "payable": false,
      "stateMutability": "nonpayable",
      "type": "function"
    },
    {
      "constant": false,
      "inputs": [
        {
          "internalType": "uint256",
          "name": "_id",
          "type": "uint256"
        },
        {
          "internalType": "string",
          "name": "_attribut",
          "type": "string"
        }
      ],
      "name": "addAttribut",
      "outputs": [
        {
          "internalType": "bool",
          "name": "",
          "type": "bool"
        }
      ],
      "payable": false,
      "stateMutability": "nonpayable",
      "type": "function"
    },
    {
      "constant": true,
      "inputs": [
        {
          "internalType": "uint256",
          "name": "_id",
          "type": "uint256"
        }
      ],
      "name": "GetAllAttribut",
      "outputs": [
        {
          "internalType": "string[]",
          "name": "",
          "type": "string[]"
        }
      ],
      "payable": false,
      "stateMutability": "view",
      "type": "function"
    },
    {
      "constant": false,
      "inputs": [
        {
          "internalType": "uint256",
          "name": "_id",
          "type": "uint256"
        }
      ],
      "name": "InitAttribut",
      "outputs": [
        {
          "internalType": "bool",
          "name": "",
          "type": "bool"
        }
      ],
      "payable": false,
      "stateMutability": "nonpayable",
      "type": "function"
    },
    {
      "constant": true,
      "inputs": [
        {
          "internalType": "string",
          "name": "_email",
          "type": "string"
        },
        {
          "internalType": "string",
          "name": "_password",
          "type": "string"
        }
      ],
      "name": "VerifieMedecin",
      "outputs": [
        {
          "internalType": "bool",
          "name": "v",
          "type": "bool"
        },
        {
          "internalType": "uint256",
          "name": "_id",
          "type": "uint256"
        }
      ],
      "payable": false,
      "stateMutability": "view",
      "type": "function"
    },
    {
      "constant": true,
      "inputs": [
        {
          "internalType": "string",
          "name": "_email",
          "type": "string"
        }
      ],
      "name": "GetMedecin",
      "outputs": [
        {
          "internalType": "uint256",
          "name": "",
          "type": "uint256"
        },
        {
          "internalType": "string",
          "name": "",
          "type": "string"
        }
      ],
      "payable": false,
      "stateMutability": "view",
      "type": "function"
    },
    {
      "constant": true,
      "inputs": [],
      "name": "getMedecins",
      "outputs": [
        {
          "internalType": "string[]",
          "name": "",
          "type": "string[]"
        }
      ],
      "payable": false,
      "stateMutability": "view",
      "type": "function"
    }
  ],
  "bytecode": "0x608060405234801561001057600080fd5b50611805806100206000396000f3fe608060405234801561001057600080fd5b506004361061009e5760003560e01c80637ac19f98116100665780637ac19f98146101845780638ee980e1146101b4578063c13ad2fc146101e6578063c1c0534b14610217578063c6a498e7146102475761009e565b80630193d3ca146100a357806333cbe53e146100d35780633d3e633e14610104578063476acff9146101345780636c311e0314610152575b600080fd5b6100bd60048036036100b89190810190611206565b610279565b6040516100ca9190611553565b60405180910390f35b6100ed60048036036100e8919081019061119a565b6102a3565b6040516100fb92919061156e565b60405180910390f35b61011e6004803603610119919081019061119a565b6103d1565b60405161012b9190611553565b60405180910390f35b61013c610664565b6040516101499190611531565b60405180910390f35b61016c60048036036101679190810190611118565b61079c565b60405161017b939291906115e7565b60405180910390f35b61019e60048036036101999190810190611206565b61090c565b6040516101ab9190611531565b60405180910390f35b6101ce60048036036101c99190810190611206565b610a07565b6040516101dd939291906115e7565b60405180910390f35b61020060048036036101fb9190810190611159565b610b61565b60405161020e9291906115b7565b60405180910390f35b610231600480360361022c919081019061122f565b610c4d565b60405161023e9190611553565b60405180910390f35b610261600480360361025c9190810190611206565b610ca8565b604051610270939291906115e7565b60405180910390f35b600080600080848152602001908152602001600020816102999190610e0f565b5060019050919050565b600080836040516020016102b791906114ee565b604051602081830303815290604052805190602001206002856040516102dd91906114ee565b90815260200160405180910390206001016040516020016102fe9190611505565b6040516020818303038152906040528051906020012014801561038c57508260405160200161032d91906114ee565b6040516020818303038152906040528051906020012060028560405161035391906114ee565b90815260200160405180910390206002016040516020016103749190611505565b60405160208183030381529060405280519060200120145b156103be5760016002856040516103a391906114ee565b908152602001604051809103902060000154915091506103ca565b60006001809050915091505b9250929050565b60006040516020016103e29061151c565b6040516020818303038152906040528051906020012060028460405161040891906114ee565b90815260200160405180910390206001016040516020016104299190611505565b604051602081830303815290604052805190602001201461047f576040517f08c379a000000000000000000000000000000000000000000000000000000000815260040161047690611597565b60405180910390fd5b60006001600360405180606001604052806000815260200187815260200186815250908060018154018082558091505090600182039060005260206000209060030201600090919290919091506000820151816000015560208201518160010190805190602001906104f2929190610e3b565b50604082015181600201908051906020019061050f929190610e3b565b505050039050806003828154811061052357fe5b9060005260206000209060030201600001819055506003818154811061054557fe5b9060005260206000209060030201600160008381526020019081526020016000206000820154816000015560018201816001019080546001816001161561010002031660029004610597929190610ebb565b50600282018160020190805460018160011615610100020316600290046105bf929190610ebb565b50905050600381815481106105d057fe5b90600052602060002090600302016002856040516105ee91906114ee565b9081526020016040518091039020600082015481600001556001820181600101908054600181600116156101000203166002900461062d929190610ebb565b5060028201816002019080546001816001161561010002031660029004610655929190610ebb565b50905050600191505092915050565b6060806001600380549050016040519080825280602002602001820160405280156106a357816020015b606081526020019060019003908161068e5790505b50905060008090505b60038054905081101561079457600381815481106106c657fe5b90600052602060002090600302016001018054600181600116156101000203166002900480601f01602080910402602001604051908101604052809291908181526020018280546001816001161561010002031660029004801561076b5780601f106107405761010080835404028352916020019161076b565b820191906000526020600020905b81548152906001019060200180831161074e57829003601f168201915b505050505082828151811061077c57fe5b602002602001018190525080806001019150506106ac565b508091505090565b600281805160208101820180518482526020830160208501208183528095505050505050600091509050806000015490806001018054600181600116156101000203166002900480601f0160208091040260200160405190810160405280929190818152602001828054600181600116156101000203166002900480156108645780601f1061083957610100808354040283529160200191610864565b820191906000526020600020905b81548152906001019060200180831161084757829003601f168201915b505050505090806002018054600181600116156101000203166002900480601f0160208091040260200160405190810160405280929190818152602001828054600181600116156101000203166002900480156109025780601f106108d757610100808354040283529160200191610902565b820191906000526020600020905b8154815290600101906020018083116108e557829003601f168201915b5050505050905083565b6060600080838152602001908152602001600020805480602002602001604051908101604052809291908181526020016000905b828210156109fc578382906000526020600020018054600181600116156101000203166002900480601f0160208091040260200160405190810160405280929190818152602001828054600181600116156101000203166002900480156109e85780601f106109bd576101008083540402835291602001916109e8565b820191906000526020600020905b8154815290600101906020018083116109cb57829003601f168201915b505050505081526020019060010190610940565b505050509050919050565b6001602052806000526040600020600091509050806000015490806001018054600181600116156101000203166002900480601f016020809104026020016040519081016040528092919081815260200182805460018160011615610100020316600290048015610ab95780601f10610a8e57610100808354040283529160200191610ab9565b820191906000526020600020905b815481529060010190602001808311610a9c57829003601f168201915b505050505090806002018054600181600116156101000203166002900480601f016020809104026020016040519081016040528092919081815260200182805460018160011615610100020316600290048015610b575780601f10610b2c57610100808354040283529160200191610b57565b820191906000526020600020905b815481529060010190602001808311610b3a57829003601f168201915b5050505050905083565b60006060600283604051610b7591906114ee565b908152602001604051809103902060000154600284604051610b9791906114ee565b9081526020016040518091039020600101808054600181600116156101000203166002900480601f016020809104026020016040519081016040528092919081815260200182805460018160011615610100020316600290048015610c3d5780601f10610c1257610100808354040283529160200191610c3d565b820191906000526020600020905b815481529060010190602001808311610c2057829003601f168201915b5050505050905091509150915091565b6000806000848152602001908152602001600020829080600181540180825580915050906001820390600052602060002001600090919290919091509080519060200190610c9c929190610f42565b50506001905092915050565b60038181548110610cb557fe5b9060005260206000209060030201600091509050806000015490806001018054600181600116156101000203166002900480601f016020809104026020016040519081016040528092919081815260200182805460018160011615610100020316600290048015610d675780601f10610d3c57610100808354040283529160200191610d67565b820191906000526020600020905b815481529060010190602001808311610d4a57829003601f168201915b505050505090806002018054600181600116156101000203166002900480601f016020809104026020016040519081016040528092919081815260200182805460018160011615610100020316600290048015610e055780601f10610dda57610100808354040283529160200191610e05565b820191906000526020600020905b815481529060010190602001808311610de857829003601f168201915b5050505050905083565b815481835581811115610e3657818360005260206000209182019101610e359190610fc2565b5b505050565b828054600181600116156101000203166002900490600052602060002090601f016020900481019282601f10610e7c57805160ff1916838001178555610eaa565b82800160010185558215610eaa579182015b82811115610ea9578251825591602001919060010190610e8e565b5b509050610eb79190610fee565b5090565b828054600181600116156101000203166002900490600052602060002090601f016020900481019282601f10610ef45780548555610f31565b82800160010185558215610f3157600052602060002091601f016020900482015b82811115610f30578254825591600101919060010190610f15565b5b509050610f3e9190610fee565b5090565b828054600181600116156101000203166002900490600052602060002090601f016020900481019282601f10610f8357805160ff1916838001178555610fb1565b82800160010185558215610fb1579182015b82811115610fb0578251825591602001919060010190610f95565b5b509050610fbe9190610fee565b5090565b610feb91905b80821115610fe75760008181610fde9190611013565b50600101610fc8565b5090565b90565b61101091905b8082111561100c576000816000905550600101610ff4565b5090565b90565b50805460018160011615610100020316600290046000825580601f106110395750611058565b601f0160209004906000526020600020908101906110579190610fee565b5b50565b600082601f83011261106c57600080fd5b813561107f61107a82611659565b61162c565b9150808252602083016020830185838301111561109b57600080fd5b6110a6838284611758565b50505092915050565b600082601f8301126110c057600080fd5b81356110d36110ce82611685565b61162c565b915080825260208301602083018583830111156110ef57600080fd5b6110fa838284611758565b50505092915050565b600081359050611112816117ab565b92915050565b60006020828403121561112a57600080fd5b600082013567ffffffffffffffff81111561114457600080fd5b6111508482850161105b565b91505092915050565b60006020828403121561116b57600080fd5b600082013567ffffffffffffffff81111561118557600080fd5b611191848285016110af565b91505092915050565b600080604083850312156111ad57600080fd5b600083013567ffffffffffffffff8111156111c757600080fd5b6111d3858286016110af565b925050602083013567ffffffffffffffff8111156111f057600080fd5b6111fc858286016110af565b9150509250929050565b60006020828403121561121857600080fd5b600061122684828501611103565b91505092915050565b6000806040838503121561124257600080fd5b600061125085828601611103565b925050602083013567ffffffffffffffff81111561126d57600080fd5b611279858286016110af565b9150509250929050565b600061128f8383611385565b905092915050565b60006112a2826116d6565b6112ac8185611704565b9350836020820285016112be856116b1565b8060005b858110156112fa57848403895281516112db8582611283565b94506112e6836116f7565b925060208a019950506001810190506112c2565b50829750879550505050505092915050565b61131581611742565b82525050565b6000611326826116ec565b6113308185611726565b9350611340818560208601611767565b6113498161179a565b840191505092915050565b600061135f826116ec565b6113698185611737565b9350611379818560208601611767565b80840191505092915050565b6000611390826116e1565b61139a8185611715565b93506113aa818560208601611767565b6113b38161179a565b840191505092915050565b60006113c9826116e1565b6113d38185611726565b93506113e3818560208601611767565b6113ec8161179a565b840191505092915050565b60008154600181166000811461141457600181146114395761147d565b607f60028304166114258187611737565b955060ff198316865280860193505061147d565b600282046114478187611737565b9550611452856116c1565b60005b8281101561147457815481890152600182019150602081019050611455565b82880195505050505b505092915050565b6000611492600683611726565b91507f65727265757200000000000000000000000000000000000000000000000000006000830152602082019050919050565b60006114d2600083611737565b9150600082019050919050565b6114e88161174e565b82525050565b60006114fa8284611354565b915081905092915050565b600061151182846113f7565b915081905092915050565b6000611527826114c5565b9150819050919050565b6000602082019050818103600083015261154b8184611297565b905092915050565b6000602082019050611568600083018461130c565b92915050565b6000604082019050611583600083018561130c565b61159060208301846114df565b9392505050565b600060208201905081810360008301526115b081611485565b9050919050565b60006040820190506115cc60008301856114df565b81810360208301526115de818461131b565b90509392505050565b60006060820190506115fc60008301866114df565b818103602083015261160e81856113be565b9050818103604083015261162281846113be565b9050949350505050565b6000604051905081810181811067ffffffffffffffff8211171561164f57600080fd5b8060405250919050565b600067ffffffffffffffff82111561167057600080fd5b601f19601f8301169050602081019050919050565b600067ffffffffffffffff82111561169c57600080fd5b601f19601f8301169050602081019050919050565b6000819050602082019050919050565b60008190508160005260206000209050919050565b600081519050919050565b600081519050919050565b600081519050919050565b6000602082019050919050565b600082825260208201905092915050565b600082825260208201905092915050565b600082825260208201905092915050565b600081905092915050565b60008115159050919050565b6000819050919050565b82818337600083830152505050565b60005b8381101561178557808201518184015260208101905061176a565b83811115611794576000848401525b50505050565b6000601f19601f8301169050919050565b6117b48161174e565b81146117bf57600080fd5b5056fea365627a7a72315820999e710b176e9bb8dfb74771c94b5e345962706a8f45a6dd54a9d6a1769229686c6578706572696d656e74616cf564736f6c63430005100040",
  "source": "pragma solidity ^0.5.16;\npragma experimental ABIEncoderV2;\n\ncontract Medecin {\n  \n  struct medecin {\n      uint id;\n      string email;\n      string password;\n  }\n  \n  mapping(uint => string[]) attributs_medecin;\n  mapping(uint => medecin) public list_id_medecin;\n  mapping(string => medecin) public list_email_medecin;\n  \n  medecin[] public medecins;\n\n    function AddMedecin(string memory _email,string memory _password) public  returns(bool){\n        require((keccak256(abi.encodePacked((list_email_medecin[_email].email))) == keccak256(abi.encodePacked((\"\")))),\"erreur\");\n        uint id =medecins.push(medecin(0,_email,_password)) -1;\n        medecins[id].id=id;\n        list_id_medecin[id]=medecins[id];\n        list_email_medecin[_email]=medecins[id];\n        return true;\n    }\n\n    function addAttribut(uint _id,string memory _attribut) public returns(bool){\n        attributs_medecin[_id].push(_attribut);\n        return true;\n    }\n    function GetAllAttribut(uint _id) public view returns(string[] memory){\n        return attributs_medecin[_id];\n    }\n    function InitAttribut(uint _id) public  returns(bool){\n        attributs_medecin[_id].length=0;\n        return true;\n    }\n\n    function VerifieMedecin(string memory _email,string memory _password) public view returns(bool v,uint _id){\n        if((keccak256(abi.encodePacked((list_email_medecin[_email].email))) == keccak256(abi.encodePacked((_email)))) &&\n        (keccak256(abi.encodePacked((list_email_medecin[_email].password))) == keccak256(abi.encodePacked((_password))))) return (true,list_email_medecin[_email].id);\n        return (false,1);\n    }\n    function GetMedecin(string memory _email) public view returns(uint,string memory){\n        return (list_email_medecin[_email].id,list_email_medecin[_email].email);\n    }\n    function getMedecins() public view returns(string[] memory){\n        string[] memory p=new string[](medecins.length+1);\n        for(uint i=0;i<medecins.length;i++){\n            p[i]=medecins[i].email;\n        }\n        return p;\n    }\n  \n}",
  "sourcePath": "/home/mehalanis/Téléchargements/e-health_blockchain/contracts/Medecin.sol",
  "compiler": {
    "name": "solc",
    "version": "0.5.16+commit.9c3226ce.Emscripten.clang"
  },
  "schemaVersion": "3.4.1",
  "updatedAt": "2021-06-28T17:31:22.932Z",
  "networkType": "ethereum",
  "devdoc": {
    "methods": {}
  },
  "userdoc": {
    "methods": {}
  }
}