{
  "contractName": "Medecin",
  "abi": [
    {
      "constant": true,
      "inputs": [
        {
          "internalType": "string",
          "name": "",
          "type": "string"
        }
      ],
      "name": "list_email_medecin",
      "outputs": [
        {
          "internalType": "uint256",
          "name": "id",
          "type": "uint256"
        },
        {
          "internalType": "string",
          "name": "email",
          "type": "string"
        },
        {
          "internalType": "string",
          "name": "password",
          "type": "string"
        }
      ],
      "payable": false,
      "stateMutability": "view",
      "type": "function"
    },
    {
      "constant": true,
      "inputs": [
        {
          "internalType": "uint256",
          "name": "",
          "type": "uint256"
        }
      ],
      "name": "list_id_medecin",
      "outputs": [
        {
          "internalType": "uint256",
          "name": "id",
          "type": "uint256"
        },
        {
          "internalType": "string",
          "name": "email",
          "type": "string"
        },
        {
          "internalType": "string",
          "name": "password",
          "type": "string"
        }
      ],
      "payable": false,
      "stateMutability": "view",
      "type": "function"
    },
    {
      "constant": true,
      "inputs": [
        {
          "internalType": "uint256",
          "name": "",
          "type": "uint256"
        }
      ],
      "name": "medecins",
      "outputs": [
        {
          "internalType": "uint256",
          "name": "id",
          "type": "uint256"
        },
        {
          "internalType": "string",
          "name": "email",
          "type": "string"
        },
        {
          "internalType": "string",
          "name": "password",
          "type": "string"
        }
      ],
      "payable": false,
      "stateMutability": "view",
      "type": "function"
    },
    {
      "constant": false,
      "inputs": [
        {
          "internalType": "string",
          "name": "_email",
          "type": "string"
        },
        {
          "internalType": "string",
          "name": "_password",
          "type": "string"
        }
      ],
      "name": "AddMedecin",
      "outputs": [
        {
          "internalType": "bool",
          "name": "",
          "type": "bool"
        }
      ],
      "payable": false,
      "stateMutability": "nonpayable",
      "type": "function"
    },
    {
      "constant": false,
      "inputs": [
        {
          "internalType": "uint256",
          "name": "_id",
          "type": "uint256"
        },
        {
          "internalType": "string",
          "name": "_attribut",
          "type": "string"
        }
      ],
      "name": "addAttribut",
      "outputs": [
        {
          "internalType": "bool",
          "name": "",
          "type": "bool"
        }
      ],
      "payable": false,
      "stateMutability": "nonpayable",
      "type": "function"
    },
    {
      "constant": true,
      "inputs": [
        {
          "internalType": "uint256",
          "name": "_id",
          "type": "uint256"
        }
      ],
      "name": "GetAttribut",
      "outputs": [
        {
          "internalType": "string[]",
          "name": "",
          "type": "string[]"
        }
      ],
      "payable": false,
      "stateMutability": "view",
      "type": "function"
    },
    {
      "constant": true,
      "inputs": [
        {
          "internalType": "string",
          "name": "_email",
          "type": "string"
        },
        {
          "internalType": "string",
          "name": "_password",
          "type": "string"
        }
      ],
      "name": "VerifieMedecin",
      "outputs": [
        {
          "internalType": "bool",
          "name": "v",
          "type": "bool"
        },
        {
          "internalType": "uint256",
          "name": "_id",
          "type": "uint256"
        }
      ],
      "payable": false,
      "stateMutability": "view",
      "type": "function"
    }
  ],
  "bytecode": "0x608060405234801561001057600080fd5b50611427806100206000396000f3fe608060405234801561001057600080fd5b506004361061007d5760003560e01c80638ee980e11161005b5780638ee980e114610115578063981e775414610147578063c1c0534b14610177578063c6a498e7146101a75761007d565b806333cbe53e146100825780633d3e633e146100b35780636c311e03146100e3575b600080fd5b61009c60048036036100979190810190610e25565b6101d9565b6040516100aa9291906111c0565b60405180910390f35b6100cd60048036036100c89190810190610e25565b610307565b6040516100da91906111a5565b60405180910390f35b6100fd60048036036100f89190810190610de4565b61059a565b60405161010c93929190611209565b60405180910390f35b61012f600480360361012a9190810190610e91565b61070a565b60405161013e93929190611209565b60405180910390f35b610161600480360361015c9190810190610e91565b610864565b60405161016e9190611183565b60405180910390f35b610191600480360361018c9190810190610eba565b61095f565b60405161019e91906111a5565b60405180910390f35b6101c160048036036101bc9190810190610e91565b610a14565b6040516101d093929190611209565b60405180910390f35b600080836040516020016101ed9190611140565b604051602081830303815290604052805190602001206002856040516102139190611140565b90815260200160405180910390206001016040516020016102349190611157565b604051602081830303815290604052805190602001201480156102c25750826040516020016102639190611140565b604051602081830303815290604052805190602001206002856040516102899190611140565b90815260200160405180910390206002016040516020016102aa9190611157565b60405160208183030381529060405280519060200120145b156102f45760016002856040516102d99190611140565b90815260200160405180910390206000015491509150610300565b60006001809050915091505b9250929050565b60006040516020016103189061116e565b6040516020818303038152906040528051906020012060028460405161033e9190611140565b908152602001604051809103902060010160405160200161035f9190611157565b60405160208183030381529060405280519060200120146103b5576040517f08c379a00000000000000000000000000000000000000000000000000000000081526004016103ac906111e9565b60405180910390fd5b6000600160036040518060600160405280600081526020018781526020018681525090806001815401808255809150509060018203906000526020600020906003020160009091929091909150600082015181600001556020820151816001019080519060200190610428929190610b7b565b506040820151816002019080519060200190610445929190610b7b565b505050039050806003828154811061045957fe5b9060005260206000209060030201600001819055506003818154811061047b57fe5b90600052602060002090600302016001600083815260200190815260200160002060008201548160000155600182018160010190805460018160011615610100020316600290046104cd929190610bfb565b50600282018160020190805460018160011615610100020316600290046104f5929190610bfb565b509050506003818154811061050657fe5b90600052602060002090600302016002856040516105249190611140565b90815260200160405180910390206000820154816000015560018201816001019080546001816001161561010002031660029004610563929190610bfb565b506002820181600201908054600181600116156101000203166002900461058b929190610bfb565b50905050600191505092915050565b600281805160208101820180518482526020830160208501208183528095505050505050600091509050806000015490806001018054600181600116156101000203166002900480601f0160208091040260200160405190810160405280929190818152602001828054600181600116156101000203166002900480156106625780601f1061063757610100808354040283529160200191610662565b820191906000526020600020905b81548152906001019060200180831161064557829003601f168201915b505050505090806002018054600181600116156101000203166002900480601f0160208091040260200160405190810160405280929190818152602001828054600181600116156101000203166002900480156107005780601f106106d557610100808354040283529160200191610700565b820191906000526020600020905b8154815290600101906020018083116106e357829003601f168201915b5050505050905083565b6001602052806000526040600020600091509050806000015490806001018054600181600116156101000203166002900480601f0160208091040260200160405190810160405280929190818152602001828054600181600116156101000203166002900480156107bc5780601f10610791576101008083540402835291602001916107bc565b820191906000526020600020905b81548152906001019060200180831161079f57829003601f168201915b505050505090806002018054600181600116156101000203166002900480601f01602080910402602001604051908101604052809291908181526020018280546001816001161561010002031660029004801561085a5780601f1061082f5761010080835404028352916020019161085a565b820191906000526020600020905b81548152906001019060200180831161083d57829003601f168201915b5050505050905083565b6060600080838152602001908152602001600020805480602002602001604051908101604052809291908181526020016000905b82821015610954578382906000526020600020018054600181600116156101000203166002900480601f0160208091040260200160405190810160405280929190818152602001828054600181600116156101000203166002900480156109405780601f1061091557610100808354040283529160200191610940565b820191906000526020600020905b81548152906001019060200180831161092357829003601f168201915b505050505081526020019060010190610898565b505050509050919050565b60008060008481526020019081526020016000208290806001815401808255809150509060018203906000526020600020016000909192909190915090805190602001906109ae929190610c82565b50506000808481526020019081526020016000208060018154018082558091505090600182039060005260206000200160006040518060200160405280600081525090919091509080519060200190610a08929190610c82565b50506001905092915050565b60038181548110610a2157fe5b9060005260206000209060030201600091509050806000015490806001018054600181600116156101000203166002900480601f016020809104026020016040519081016040528092919081815260200182805460018160011615610100020316600290048015610ad35780601f10610aa857610100808354040283529160200191610ad3565b820191906000526020600020905b815481529060010190602001808311610ab657829003601f168201915b505050505090806002018054600181600116156101000203166002900480601f016020809104026020016040519081016040528092919081815260200182805460018160011615610100020316600290048015610b715780601f10610b4657610100808354040283529160200191610b71565b820191906000526020600020905b815481529060010190602001808311610b5457829003601f168201915b5050505050905083565b828054600181600116156101000203166002900490600052602060002090601f016020900481019282601f10610bbc57805160ff1916838001178555610bea565b82800160010185558215610bea579182015b82811115610be9578251825591602001919060010190610bce565b5b509050610bf79190610d02565b5090565b828054600181600116156101000203166002900490600052602060002090601f016020900481019282601f10610c345780548555610c71565b82800160010185558215610c7157600052602060002091601f016020900482015b82811115610c70578254825591600101919060010190610c55565b5b509050610c7e9190610d02565b5090565b828054600181600116156101000203166002900490600052602060002090601f016020900481019282601f10610cc357805160ff1916838001178555610cf1565b82800160010185558215610cf1579182015b82811115610cf0578251825591602001919060010190610cd5565b5b509050610cfe9190610d02565b5090565b610d2491905b80821115610d20576000816000905550600101610d08565b5090565b90565b600082601f830112610d3857600080fd5b8135610d4b610d468261127b565b61124e565b91508082526020830160208301858383011115610d6757600080fd5b610d7283828461137a565b50505092915050565b600082601f830112610d8c57600080fd5b8135610d9f610d9a826112a7565b61124e565b91508082526020830160208301858383011115610dbb57600080fd5b610dc683828461137a565b50505092915050565b600081359050610dde816113cd565b92915050565b600060208284031215610df657600080fd5b600082013567ffffffffffffffff811115610e1057600080fd5b610e1c84828501610d27565b91505092915050565b60008060408385031215610e3857600080fd5b600083013567ffffffffffffffff811115610e5257600080fd5b610e5e85828601610d7b565b925050602083013567ffffffffffffffff811115610e7b57600080fd5b610e8785828601610d7b565b9150509250929050565b600060208284031215610ea357600080fd5b6000610eb184828501610dcf565b91505092915050565b60008060408385031215610ecd57600080fd5b6000610edb85828601610dcf565b925050602083013567ffffffffffffffff811115610ef857600080fd5b610f0485828601610d7b565b9150509250929050565b6000610f1a8383610fd7565b905092915050565b6000610f2d826112f8565b610f378185611326565b935083602082028501610f49856112d3565b8060005b85811015610f855784840389528151610f668582610f0e565b9450610f7183611319565b925060208a01995050600181019050610f4d565b50829750879550505050505092915050565b610fa081611364565b82525050565b6000610fb18261130e565b610fbb8185611359565b9350610fcb818560208601611389565b80840191505092915050565b6000610fe282611303565b610fec8185611337565b9350610ffc818560208601611389565b611005816113bc565b840191505092915050565b600061101b82611303565b6110258185611348565b9350611035818560208601611389565b61103e816113bc565b840191505092915050565b600081546001811660008114611066576001811461108b576110cf565b607f60028304166110778187611359565b955060ff19831686528086019350506110cf565b600282046110998187611359565b95506110a4856112e3565b60005b828110156110c6578154818901526001820191506020810190506110a7565b82880195505050505b505092915050565b60006110e4600683611348565b91507f65727265757200000000000000000000000000000000000000000000000000006000830152602082019050919050565b6000611124600083611359565b9150600082019050919050565b61113a81611370565b82525050565b600061114c8284610fa6565b915081905092915050565b60006111638284611049565b915081905092915050565b600061117982611117565b9150819050919050565b6000602082019050818103600083015261119d8184610f22565b905092915050565b60006020820190506111ba6000830184610f97565b92915050565b60006040820190506111d56000830185610f97565b6111e26020830184611131565b9392505050565b60006020820190508181036000830152611202816110d7565b9050919050565b600060608201905061121e6000830186611131565b81810360208301526112308185611010565b905081810360408301526112448184611010565b9050949350505050565b6000604051905081810181811067ffffffffffffffff8211171561127157600080fd5b8060405250919050565b600067ffffffffffffffff82111561129257600080fd5b601f19601f8301169050602081019050919050565b600067ffffffffffffffff8211156112be57600080fd5b601f19601f8301169050602081019050919050565b6000819050602082019050919050565b60008190508160005260206000209050919050565b600081519050919050565b600081519050919050565b600081519050919050565b6000602082019050919050565b600082825260208201905092915050565b600082825260208201905092915050565b600082825260208201905092915050565b600081905092915050565b60008115159050919050565b6000819050919050565b82818337600083830152505050565b60005b838110156113a757808201518184015260208101905061138c565b838111156113b6576000848401525b50505050565b6000601f19601f8301169050919050565b6113d681611370565b81146113e157600080fd5b5056fea365627a7a723158203bf4b455a5ffa782fec7776aeb4cebdc6e6284e592e10e92601bc4ddf04b413d6c6578706572696d656e74616cf564736f6c63430005100040",
  "source": "pragma solidity ^0.5.16;\npragma experimental ABIEncoderV2;\ncontract Medecin {\n  struct medecin {\n      uint id;\n      string email;\n      string password;\n  }\n  mapping(uint => string[]) attribut;\n  mapping(uint => medecin) public list_id_medecin;\n  mapping(string => medecin) public list_email_medecin;\n  medecin[] public medecins;\n  function AddMedecin(string memory _email,string memory _password) public  returns(bool){\n        require((keccak256(abi.encodePacked((list_email_medecin[_email].email))) == keccak256(abi.encodePacked((\"\")))),\"erreur\");\n        uint id =medecins.push(medecin(0,_email,_password)) -1;\n        medecins[id].id=id;\n        list_id_medecin[id]=medecins[id];\n        list_email_medecin[_email]=medecins[id];\n        return true;\n    }\n    function addAttribut(uint _id,string memory _attribut) public returns(bool){\n        attribut[_id].push(_attribut);\n        attribut[_id].push(\"\");\n        return true;\n    }\n    function GetAttribut(uint _id) public view returns(string[] memory){\n        return attribut[_id];\n    }\n    function VerifieMedecin(string memory _email,string memory _password) public view returns(bool v,uint _id){\n        if((keccak256(abi.encodePacked((list_email_medecin[_email].email))) == keccak256(abi.encodePacked((_email)))) &&\n        (keccak256(abi.encodePacked((list_email_medecin[_email].password))) == keccak256(abi.encodePacked((_password))))) return (true,list_email_medecin[_email].id);\n        return (false,1);\n    }\n  \n}",
  "sourcePath": "/home/mehalanis/Téléchargements/e-health_blockchain/contracts/Medecin.sol",
  "compiler": {
    "name": "solc",
    "version": "0.5.16+commit.9c3226ce.Emscripten.clang"
  },
  "schemaVersion": "3.4.1",
  "updatedAt": "2021-06-25T17:30:22.806Z",
  "networkType": "ethereum",
  "devdoc": {
    "methods": {}
  },
  "userdoc": {
    "methods": {}
  }
}