{
  "contractName": "Medecin",
  "abi": [
    {
      "constant": true,
      "inputs": [
        {
          "internalType": "string",
          "name": "",
          "type": "string"
        }
      ],
      "name": "list_email_medecin",
      "outputs": [
        {
          "internalType": "uint256",
          "name": "id",
          "type": "uint256"
        },
        {
          "internalType": "string",
          "name": "email",
          "type": "string"
        },
        {
          "internalType": "string",
          "name": "password",
          "type": "string"
        }
      ],
      "payable": false,
      "stateMutability": "view",
      "type": "function"
    },
    {
      "constant": true,
      "inputs": [
        {
          "internalType": "uint256",
          "name": "",
          "type": "uint256"
        }
      ],
      "name": "list_id_medecin",
      "outputs": [
        {
          "internalType": "uint256",
          "name": "id",
          "type": "uint256"
        },
        {
          "internalType": "string",
          "name": "email",
          "type": "string"
        },
        {
          "internalType": "string",
          "name": "password",
          "type": "string"
        }
      ],
      "payable": false,
      "stateMutability": "view",
      "type": "function"
    },
    {
      "constant": true,
      "inputs": [
        {
          "internalType": "uint256",
          "name": "",
          "type": "uint256"
        }
      ],
      "name": "medecins",
      "outputs": [
        {
          "internalType": "uint256",
          "name": "id",
          "type": "uint256"
        },
        {
          "internalType": "string",
          "name": "email",
          "type": "string"
        },
        {
          "internalType": "string",
          "name": "password",
          "type": "string"
        }
      ],
      "payable": false,
      "stateMutability": "view",
      "type": "function"
    },
    {
      "constant": false,
      "inputs": [
        {
          "internalType": "string",
          "name": "_email",
          "type": "string"
        },
        {
          "internalType": "string",
          "name": "_password",
          "type": "string"
        }
      ],
      "name": "AddMedecin",
      "outputs": [
        {
          "internalType": "bool",
          "name": "",
          "type": "bool"
        }
      ],
      "payable": false,
      "stateMutability": "nonpayable",
      "type": "function"
    },
    {
      "constant": false,
      "inputs": [
        {
          "internalType": "uint256",
          "name": "_id",
          "type": "uint256"
        },
        {
          "internalType": "string",
          "name": "_attribut",
          "type": "string"
        }
      ],
      "name": "addAttribut",
      "outputs": [
        {
          "internalType": "bool",
          "name": "",
          "type": "bool"
        }
      ],
      "payable": false,
      "stateMutability": "nonpayable",
      "type": "function"
    },
    {
      "constant": true,
      "inputs": [
        {
          "internalType": "uint256",
          "name": "_id",
          "type": "uint256"
        }
      ],
      "name": "GetAllAttribut",
      "outputs": [
        {
          "internalType": "string[]",
          "name": "",
          "type": "string[]"
        }
      ],
      "payable": false,
      "stateMutability": "view",
      "type": "function"
    },
    {
      "constant": false,
      "inputs": [
        {
          "internalType": "uint256",
          "name": "_id",
          "type": "uint256"
        }
      ],
      "name": "InitAttribut",
      "outputs": [
        {
          "internalType": "bool",
          "name": "",
          "type": "bool"
        }
      ],
      "payable": false,
      "stateMutability": "nonpayable",
      "type": "function"
    },
    {
      "constant": true,
      "inputs": [
        {
          "internalType": "string",
          "name": "_email",
          "type": "string"
        },
        {
          "internalType": "string",
          "name": "_password",
          "type": "string"
        }
      ],
      "name": "VerifieMedecin",
      "outputs": [
        {
          "internalType": "bool",
          "name": "v",
          "type": "bool"
        },
        {
          "internalType": "uint256",
          "name": "_id",
          "type": "uint256"
        }
      ],
      "payable": false,
      "stateMutability": "view",
      "type": "function"
    },
    {
      "constant": true,
      "inputs": [
        {
          "internalType": "string",
          "name": "_email",
          "type": "string"
        }
      ],
      "name": "GetMedecin",
      "outputs": [
        {
          "internalType": "uint256",
          "name": "",
          "type": "uint256"
        },
        {
          "internalType": "string",
          "name": "",
          "type": "string"
        }
      ],
      "payable": false,
      "stateMutability": "view",
      "type": "function"
    },
    {
      "constant": true,
      "inputs": [],
      "name": "getMedecins",
      "outputs": [
        {
          "internalType": "string[]",
          "name": "",
          "type": "string[]"
        }
      ],
      "payable": false,
      "stateMutability": "view",
      "type": "function"
    }
  ],
  "bytecode": "0x608060405234801561001057600080fd5b5061185f806100206000396000f3fe608060405234801561001057600080fd5b506004361061009e5760003560e01c80637ac19f98116100665780637ac19f98146101845780638ee980e1146101b4578063c13ad2fc146101e6578063c1c0534b14610217578063c6a498e7146102475761009e565b80630193d3ca146100a357806333cbe53e146100d35780633d3e633e14610104578063476acff9146101345780636c311e0314610152575b600080fd5b6100bd60048036036100b89190810190611260565b610279565b6040516100ca91906115ad565b60405180910390f35b6100ed60048036036100e891908101906111f4565b6102a3565b6040516100fb9291906115c8565b60405180910390f35b61011e600480360361011991908101906111f4565b6103d1565b60405161012b91906115ad565b60405180910390f35b61013c610664565b604051610149919061158b565b60405180910390f35b61016c60048036036101679190810190611172565b61079c565b60405161017b93929190611641565b60405180910390f35b61019e60048036036101999190810190611260565b61090c565b6040516101ab919061158b565b60405180910390f35b6101ce60048036036101c99190810190611260565b610a07565b6040516101dd93929190611641565b60405180910390f35b61020060048036036101fb91908101906111b3565b610b61565b60405161020e929190611611565b60405180910390f35b610231600480360361022c9190810190611289565b610c4d565b60405161023e91906115ad565b60405180910390f35b610261600480360361025c9190810190611260565b610d02565b60405161027093929190611641565b60405180910390f35b600080600080848152602001908152602001600020816102999190610e69565b5060019050919050565b600080836040516020016102b79190611548565b604051602081830303815290604052805190602001206002856040516102dd9190611548565b90815260200160405180910390206001016040516020016102fe919061155f565b6040516020818303038152906040528051906020012014801561038c57508260405160200161032d9190611548565b604051602081830303815290604052805190602001206002856040516103539190611548565b9081526020016040518091039020600201604051602001610374919061155f565b60405160208183030381529060405280519060200120145b156103be5760016002856040516103a39190611548565b908152602001604051809103902060000154915091506103ca565b60006001809050915091505b9250929050565b60006040516020016103e290611576565b604051602081830303815290604052805190602001206002846040516104089190611548565b9081526020016040518091039020600101604051602001610429919061155f565b604051602081830303815290604052805190602001201461047f576040517f08c379a0000000000000000000000000000000000000000000000000000000008152600401610476906115f1565b60405180910390fd5b60006001600360405180606001604052806000815260200187815260200186815250908060018154018082558091505090600182039060005260206000209060030201600090919290919091506000820151816000015560208201518160010190805190602001906104f2929190610e95565b50604082015181600201908051906020019061050f929190610e95565b505050039050806003828154811061052357fe5b9060005260206000209060030201600001819055506003818154811061054557fe5b9060005260206000209060030201600160008381526020019081526020016000206000820154816000015560018201816001019080546001816001161561010002031660029004610597929190610f15565b50600282018160020190805460018160011615610100020316600290046105bf929190610f15565b50905050600381815481106105d057fe5b90600052602060002090600302016002856040516105ee9190611548565b9081526020016040518091039020600082015481600001556001820181600101908054600181600116156101000203166002900461062d929190610f15565b5060028201816002019080546001816001161561010002031660029004610655929190610f15565b50905050600191505092915050565b6060806001600380549050016040519080825280602002602001820160405280156106a357816020015b606081526020019060019003908161068e5790505b50905060008090505b60038054905081101561079457600381815481106106c657fe5b90600052602060002090600302016001018054600181600116156101000203166002900480601f01602080910402602001604051908101604052809291908181526020018280546001816001161561010002031660029004801561076b5780601f106107405761010080835404028352916020019161076b565b820191906000526020600020905b81548152906001019060200180831161074e57829003601f168201915b505050505082828151811061077c57fe5b602002602001018190525080806001019150506106ac565b508091505090565b600281805160208101820180518482526020830160208501208183528095505050505050600091509050806000015490806001018054600181600116156101000203166002900480601f0160208091040260200160405190810160405280929190818152602001828054600181600116156101000203166002900480156108645780601f1061083957610100808354040283529160200191610864565b820191906000526020600020905b81548152906001019060200180831161084757829003601f168201915b505050505090806002018054600181600116156101000203166002900480601f0160208091040260200160405190810160405280929190818152602001828054600181600116156101000203166002900480156109025780601f106108d757610100808354040283529160200191610902565b820191906000526020600020905b8154815290600101906020018083116108e557829003601f168201915b5050505050905083565b6060600080838152602001908152602001600020805480602002602001604051908101604052809291908181526020016000905b828210156109fc578382906000526020600020018054600181600116156101000203166002900480601f0160208091040260200160405190810160405280929190818152602001828054600181600116156101000203166002900480156109e85780601f106109bd576101008083540402835291602001916109e8565b820191906000526020600020905b8154815290600101906020018083116109cb57829003601f168201915b505050505081526020019060010190610940565b505050509050919050565b6001602052806000526040600020600091509050806000015490806001018054600181600116156101000203166002900480601f016020809104026020016040519081016040528092919081815260200182805460018160011615610100020316600290048015610ab95780601f10610a8e57610100808354040283529160200191610ab9565b820191906000526020600020905b815481529060010190602001808311610a9c57829003601f168201915b505050505090806002018054600181600116156101000203166002900480601f016020809104026020016040519081016040528092919081815260200182805460018160011615610100020316600290048015610b575780601f10610b2c57610100808354040283529160200191610b57565b820191906000526020600020905b815481529060010190602001808311610b3a57829003601f168201915b5050505050905083565b60006060600283604051610b759190611548565b908152602001604051809103902060000154600284604051610b979190611548565b9081526020016040518091039020600101808054600181600116156101000203166002900480601f016020809104026020016040519081016040528092919081815260200182805460018160011615610100020316600290048015610c3d5780601f10610c1257610100808354040283529160200191610c3d565b820191906000526020600020905b815481529060010190602001808311610c2057829003601f168201915b5050505050905091509150915091565b6000806000848152602001908152602001600020829080600181540180825580915050906001820390600052602060002001600090919290919091509080519060200190610c9c929190610f9c565b50506000808481526020019081526020016000208060018154018082558091505090600182039060005260206000200160006040518060200160405280600081525090919091509080519060200190610cf6929190610f9c565b50506001905092915050565b60038181548110610d0f57fe5b9060005260206000209060030201600091509050806000015490806001018054600181600116156101000203166002900480601f016020809104026020016040519081016040528092919081815260200182805460018160011615610100020316600290048015610dc15780601f10610d9657610100808354040283529160200191610dc1565b820191906000526020600020905b815481529060010190602001808311610da457829003601f168201915b505050505090806002018054600181600116156101000203166002900480601f016020809104026020016040519081016040528092919081815260200182805460018160011615610100020316600290048015610e5f5780601f10610e3457610100808354040283529160200191610e5f565b820191906000526020600020905b815481529060010190602001808311610e4257829003601f168201915b5050505050905083565b815481835581811115610e9057818360005260206000209182019101610e8f919061101c565b5b505050565b828054600181600116156101000203166002900490600052602060002090601f016020900481019282601f10610ed657805160ff1916838001178555610f04565b82800160010185558215610f04579182015b82811115610f03578251825591602001919060010190610ee8565b5b509050610f119190611048565b5090565b828054600181600116156101000203166002900490600052602060002090601f016020900481019282601f10610f4e5780548555610f8b565b82800160010185558215610f8b57600052602060002091601f016020900482015b82811115610f8a578254825591600101919060010190610f6f565b5b509050610f989190611048565b5090565b828054600181600116156101000203166002900490600052602060002090601f016020900481019282601f10610fdd57805160ff191683800117855561100b565b8280016001018555821561100b579182015b8281111561100a578251825591602001919060010190610fef565b5b5090506110189190611048565b5090565b61104591905b808211156110415760008181611038919061106d565b50600101611022565b5090565b90565b61106a91905b8082111561106657600081600090555060010161104e565b5090565b90565b50805460018160011615610100020316600290046000825580601f1061109357506110b2565b601f0160209004906000526020600020908101906110b19190611048565b5b50565b600082601f8301126110c657600080fd5b81356110d96110d4826116b3565b611686565b915080825260208301602083018583830111156110f557600080fd5b6111008382846117b2565b50505092915050565b600082601f83011261111a57600080fd5b813561112d611128826116df565b611686565b9150808252602083016020830185838301111561114957600080fd5b6111548382846117b2565b50505092915050565b60008135905061116c81611805565b92915050565b60006020828403121561118457600080fd5b600082013567ffffffffffffffff81111561119e57600080fd5b6111aa848285016110b5565b91505092915050565b6000602082840312156111c557600080fd5b600082013567ffffffffffffffff8111156111df57600080fd5b6111eb84828501611109565b91505092915050565b6000806040838503121561120757600080fd5b600083013567ffffffffffffffff81111561122157600080fd5b61122d85828601611109565b925050602083013567ffffffffffffffff81111561124a57600080fd5b61125685828601611109565b9150509250929050565b60006020828403121561127257600080fd5b60006112808482850161115d565b91505092915050565b6000806040838503121561129c57600080fd5b60006112aa8582860161115d565b925050602083013567ffffffffffffffff8111156112c757600080fd5b6112d385828601611109565b9150509250929050565b60006112e983836113df565b905092915050565b60006112fc82611730565b611306818561175e565b9350836020820285016113188561170b565b8060005b85811015611354578484038952815161133585826112dd565b945061134083611751565b925060208a0199505060018101905061131c565b50829750879550505050505092915050565b61136f8161179c565b82525050565b600061138082611746565b61138a8185611780565b935061139a8185602086016117c1565b6113a3816117f4565b840191505092915050565b60006113b982611746565b6113c38185611791565b93506113d38185602086016117c1565b80840191505092915050565b60006113ea8261173b565b6113f4818561176f565b93506114048185602086016117c1565b61140d816117f4565b840191505092915050565b60006114238261173b565b61142d8185611780565b935061143d8185602086016117c1565b611446816117f4565b840191505092915050565b60008154600181166000811461146e5760018114611493576114d7565b607f600283041661147f8187611791565b955060ff19831686528086019350506114d7565b600282046114a18187611791565b95506114ac8561171b565b60005b828110156114ce578154818901526001820191506020810190506114af565b82880195505050505b505092915050565b60006114ec600683611780565b91507f65727265757200000000000000000000000000000000000000000000000000006000830152602082019050919050565b600061152c600083611791565b9150600082019050919050565b611542816117a8565b82525050565b600061155482846113ae565b915081905092915050565b600061156b8284611451565b915081905092915050565b60006115818261151f565b9150819050919050565b600060208201905081810360008301526115a581846112f1565b905092915050565b60006020820190506115c26000830184611366565b92915050565b60006040820190506115dd6000830185611366565b6115ea6020830184611539565b9392505050565b6000602082019050818103600083015261160a816114df565b9050919050565b60006040820190506116266000830185611539565b81810360208301526116388184611375565b90509392505050565b60006060820190506116566000830186611539565b81810360208301526116688185611418565b9050818103604083015261167c8184611418565b9050949350505050565b6000604051905081810181811067ffffffffffffffff821117156116a957600080fd5b8060405250919050565b600067ffffffffffffffff8211156116ca57600080fd5b601f19601f8301169050602081019050919050565b600067ffffffffffffffff8211156116f657600080fd5b601f19601f8301169050602081019050919050565b6000819050602082019050919050565b60008190508160005260206000209050919050565b600081519050919050565b600081519050919050565b600081519050919050565b6000602082019050919050565b600082825260208201905092915050565b600082825260208201905092915050565b600082825260208201905092915050565b600081905092915050565b60008115159050919050565b6000819050919050565b82818337600083830152505050565b60005b838110156117df5780820151818401526020810190506117c4565b838111156117ee576000848401525b50505050565b6000601f19601f8301169050919050565b61180e816117a8565b811461181957600080fd5b5056fea365627a7a72315820e5c7b8a4da36a17987c13bc16388454ecb2a8adafb1eed1d9b4d3187d41a14eb6c6578706572696d656e74616cf564736f6c63430005100040",
  "source": "pragma solidity ^0.5.16;\npragma experimental ABIEncoderV2;\n\ncontract Medecin {\n  \n  struct medecin {\n      uint id;\n      string email;\n      string password;\n  }\n  \n  mapping(uint => string[]) attributs_medecin;\n  mapping(uint => medecin) public list_id_medecin;\n  mapping(string => medecin) public list_email_medecin;\n  \n  medecin[] public medecins;\n\n    function AddMedecin(string memory _email,string memory _password) public  returns(bool){\n        require((keccak256(abi.encodePacked((list_email_medecin[_email].email))) == keccak256(abi.encodePacked((\"\")))),\"erreur\");\n        uint id =medecins.push(medecin(0,_email,_password)) -1;\n        medecins[id].id=id;\n        list_id_medecin[id]=medecins[id];\n        list_email_medecin[_email]=medecins[id];\n        return true;\n    }\n\n    function addAttribut(uint _id,string memory _attribut) public returns(bool){\n        attributs_medecin[_id].push(_attribut);\n        attributs_medecin[_id].push(\"\");\n        return true;\n    }\n    function GetAllAttribut(uint _id) public view returns(string[] memory){\n        return attributs_medecin[_id];\n    }\n    function InitAttribut(uint _id) public  returns(bool){\n        attributs_medecin[_id].length=0;\n        return true;\n    }\n\n    function VerifieMedecin(string memory _email,string memory _password) public view returns(bool v,uint _id){\n        if((keccak256(abi.encodePacked((list_email_medecin[_email].email))) == keccak256(abi.encodePacked((_email)))) &&\n        (keccak256(abi.encodePacked((list_email_medecin[_email].password))) == keccak256(abi.encodePacked((_password))))) return (true,list_email_medecin[_email].id);\n        return (false,1);\n    }\n    function GetMedecin(string memory _email) public view returns(uint,string memory){\n        return (list_email_medecin[_email].id,list_email_medecin[_email].email);\n    }\n    function getMedecins() public view returns(string[] memory){\n        string[] memory p=new string[](medecins.length+1);\n        for(uint i=0;i<medecins.length;i++){\n            p[i]=medecins[i].email;\n        }\n        return p;\n    }\n  \n}",
  "sourcePath": "/home/mehalanis/Téléchargements/e-health_blockchain/contracts/Medecin.sol",
  "compiler": {
    "name": "solc",
    "version": "0.5.16+commit.9c3226ce.Emscripten.clang"
  },
  "schemaVersion": "3.4.1",
  "updatedAt": "2021-06-30T19:46:17.995Z",
  "networkType": "ethereum",
  "devdoc": {
    "methods": {}
  },
  "userdoc": {
    "methods": {}
  }
}