{
  "contractName": "UserSystem",
  "abi": [
    {
      "constant": true,
      "inputs": [
        {
          "internalType": "uint256",
          "name": "",
          "type": "uint256"
        }
      ],
      "name": "listAddresse",
      "outputs": [
        {
          "internalType": "uint256",
          "name": "id",
          "type": "uint256"
        },
        {
          "internalType": "string",
          "name": "email",
          "type": "string"
        },
        {
          "internalType": "string",
          "name": "password",
          "type": "string"
        }
      ],
      "payable": false,
      "stateMutability": "view",
      "type": "function"
    },
    {
      "constant": true,
      "inputs": [
        {
          "internalType": "string",
          "name": "",
          "type": "string"
        }
      ],
      "name": "list_email_user",
      "outputs": [
        {
          "internalType": "uint256",
          "name": "id",
          "type": "uint256"
        },
        {
          "internalType": "string",
          "name": "email",
          "type": "string"
        },
        {
          "internalType": "string",
          "name": "password",
          "type": "string"
        }
      ],
      "payable": false,
      "stateMutability": "view",
      "type": "function"
    },
    {
      "constant": true,
      "inputs": [
        {
          "internalType": "uint256",
          "name": "",
          "type": "uint256"
        }
      ],
      "name": "users",
      "outputs": [
        {
          "internalType": "uint256",
          "name": "id",
          "type": "uint256"
        },
        {
          "internalType": "string",
          "name": "email",
          "type": "string"
        },
        {
          "internalType": "string",
          "name": "password",
          "type": "string"
        }
      ],
      "payable": false,
      "stateMutability": "view",
      "type": "function"
    },
    {
      "constant": false,
      "inputs": [
        {
          "internalType": "string",
          "name": "_email",
          "type": "string"
        },
        {
          "internalType": "string",
          "name": "_password",
          "type": "string"
        }
      ],
      "name": "setUser",
      "outputs": [
        {
          "internalType": "bool",
          "name": "",
          "type": "bool"
        }
      ],
      "payable": false,
      "stateMutability": "nonpayable",
      "type": "function"
    },
    {
      "constant": false,
      "inputs": [
        {
          "internalType": "uint256",
          "name": "_id",
          "type": "uint256"
        },
        {
          "internalType": "string",
          "name": "_attribut",
          "type": "string"
        }
      ],
      "name": "addAttrubut",
      "outputs": [
        {
          "internalType": "bool",
          "name": "",
          "type": "bool"
        }
      ],
      "payable": false,
      "stateMutability": "nonpayable",
      "type": "function"
    },
    {
      "constant": true,
      "inputs": [
        {
          "internalType": "uint256",
          "name": "_id",
          "type": "uint256"
        }
      ],
      "name": "GetUser",
      "outputs": [
        {
          "internalType": "uint256",
          "name": "id",
          "type": "uint256"
        },
        {
          "internalType": "string",
          "name": "email",
          "type": "string"
        },
        {
          "internalType": "string",
          "name": "password",
          "type": "string"
        }
      ],
      "payable": false,
      "stateMutability": "view",
      "type": "function"
    },
    {
      "constant": true,
      "inputs": [
        {
          "internalType": "uint256",
          "name": "_id",
          "type": "uint256"
        }
      ],
      "name": "GetAttrubut",
      "outputs": [
        {
          "internalType": "string[]",
          "name": "",
          "type": "string[]"
        }
      ],
      "payable": false,
      "stateMutability": "view",
      "type": "function"
    },
    {
      "constant": true,
      "inputs": [
        {
          "internalType": "string",
          "name": "_email",
          "type": "string"
        },
        {
          "internalType": "string",
          "name": "_password",
          "type": "string"
        }
      ],
      "name": "VerifieUser",
      "outputs": [
        {
          "internalType": "bool",
          "name": "v",
          "type": "bool"
        },
        {
          "internalType": "uint256",
          "name": "_id",
          "type": "uint256"
        }
      ],
      "payable": false,
      "stateMutability": "view",
      "type": "function"
    }
  ],
  "bytecode": "0x608060405234801561001057600080fd5b5061166f806100206000396000f3fe608060405234801561001057600080fd5b50600436106100885760003560e01c8063659ccd1b1161005b578063659ccd1b14610153578063857192b814610183578063b654e2a6146101b5578063eadd1b92146101e657610088565b8063070f1d521461008d57806307412f03146100bf578063365b98b2146100f15780635728b97314610123575b600080fd5b6100a760048036036100a2919081019061105b565b610216565b6040516100b69392919061140c565b60405180910390f35b6100d960048036036100d49190810190610fae565b6103a3565b6040516100e893929190611451565b60405180910390f35b61010b6004803603610106919081019061105b565b610513565b60405161011a93929190611451565b60405180910390f35b61013d60048036036101389190810190610fef565b61067a565b60405161014a91906113a8565b60405180910390f35b61016d60048036036101689190810190611084565b61090d565b60405161017a91906113a8565b60405180910390f35b61019d6004803603610198919081019061105b565b6109c2565b6040516101ac93929190611451565b60405180910390f35b6101cf60048036036101ca9190810190610fef565b610b1c565b6040516101dd9291906113c3565b60405180910390f35b61020060048036036101fb919081019061105b565b610c4a565b60405161020d9190611386565b60405180910390f35b600060608060016000858152602001908152602001600020600001546001600086815260200190815260200160002060010160016000878152602001908152602001600020600201818054600181600116156101000203166002900480601f0160208091040260200160405190810160405280929190818152602001828054600181600116156101000203166002900480156102f35780601f106102c8576101008083540402835291602001916102f3565b820191906000526020600020905b8154815290600101906020018083116102d657829003601f168201915b50505050509150808054600181600116156101000203166002900480601f01602080910402602001604051908101604052809291908181526020018280546001816001161561010002031660029004801561038f5780601f106103645761010080835404028352916020019161038f565b820191906000526020600020905b81548152906001019060200180831161037257829003601f168201915b505050505090509250925092509193909250565b600281805160208101820180518482526020830160208501208183528095505050505050600091509050806000015490806001018054600181600116156101000203166002900480601f01602080910402602001604051908101604052809291908181526020018280546001816001161561010002031660029004801561046b5780601f106104405761010080835404028352916020019161046b565b820191906000526020600020905b81548152906001019060200180831161044e57829003601f168201915b505050505090806002018054600181600116156101000203166002900480601f0160208091040260200160405190810160405280929190818152602001828054600181600116156101000203166002900480156105095780601f106104de57610100808354040283529160200191610509565b820191906000526020600020905b8154815290600101906020018083116104ec57829003601f168201915b5050505050905083565b6003818154811061052057fe5b9060005260206000209060030201600091509050806000015490806001018054600181600116156101000203166002900480601f0160208091040260200160405190810160405280929190818152602001828054600181600116156101000203166002900480156105d25780601f106105a7576101008083540402835291602001916105d2565b820191906000526020600020905b8154815290600101906020018083116105b557829003601f168201915b505050505090806002018054600181600116156101000203166002900480601f0160208091040260200160405190810160405280929190818152602001828054600181600116156101000203166002900480156106705780601f1061064557610100808354040283529160200191610670565b820191906000526020600020905b81548152906001019060200180831161065357829003601f168201915b5050505050905083565b600060405160200161068b90611371565b604051602081830303815290604052805190602001206002846040516106b19190611343565b90815260200160405180910390206001016040516020016106d2919061135a565b6040516020818303038152906040528051906020012014610728576040517f08c379a000000000000000000000000000000000000000000000000000000000815260040161071f906113ec565b60405180910390fd5b600060016003604051806060016040528060008152602001878152602001868152509080600181540180825580915050906001820390600052602060002090600302016000909192909190915060008201518160000155602082015181600101908051906020019061079b929190610d45565b5060408201518160020190805190602001906107b8929190610d45565b50505003905080600382815481106107cc57fe5b906000526020600020906003020160000181905550600381815481106107ee57fe5b9060005260206000209060030201600160008381526020019081526020016000206000820154816000015560018201816001019080546001816001161561010002031660029004610840929190610dc5565b5060028201816002019080546001816001161561010002031660029004610868929190610dc5565b509050506003818154811061087957fe5b90600052602060002090600302016002856040516108979190611343565b908152602001604051809103902060008201548160000155600182018160010190805460018160011615610100020316600290046108d6929190610dc5565b50600282018160020190805460018160011615610100020316600290046108fe929190610dc5565b50905050600191505092915050565b600080600084815260200190815260200160002082908060018154018082558091505090600182039060005260206000200160009091929091909150908051906020019061095c929190610e4c565b505060008084815260200190815260200160002080600181540180825580915050906001820390600052602060002001600060405180602001604052806000815250909190915090805190602001906109b6929190610e4c565b50506001905092915050565b6001602052806000526040600020600091509050806000015490806001018054600181600116156101000203166002900480601f016020809104026020016040519081016040528092919081815260200182805460018160011615610100020316600290048015610a745780601f10610a4957610100808354040283529160200191610a74565b820191906000526020600020905b815481529060010190602001808311610a5757829003601f168201915b505050505090806002018054600181600116156101000203166002900480601f016020809104026020016040519081016040528092919081815260200182805460018160011615610100020316600290048015610b125780601f10610ae757610100808354040283529160200191610b12565b820191906000526020600020905b815481529060010190602001808311610af557829003601f168201915b5050505050905083565b60008083604051602001610b309190611343565b60405160208183030381529060405280519060200120600285604051610b569190611343565b9081526020016040518091039020600101604051602001610b77919061135a565b60405160208183030381529060405280519060200120148015610c05575082604051602001610ba69190611343565b60405160208183030381529060405280519060200120600285604051610bcc9190611343565b9081526020016040518091039020600201604051602001610bed919061135a565b60405160208183030381529060405280519060200120145b15610c37576001600285604051610c1c9190611343565b90815260200160405180910390206000015491509150610c43565b60006001809050915091505b9250929050565b6060600080838152602001908152602001600020805480602002602001604051908101604052809291908181526020016000905b82821015610d3a578382906000526020600020018054600181600116156101000203166002900480601f016020809104026020016040519081016040528092919081815260200182805460018160011615610100020316600290048015610d265780601f10610cfb57610100808354040283529160200191610d26565b820191906000526020600020905b815481529060010190602001808311610d0957829003601f168201915b505050505081526020019060010190610c7e565b505050509050919050565b828054600181600116156101000203166002900490600052602060002090601f016020900481019282601f10610d8657805160ff1916838001178555610db4565b82800160010185558215610db4579182015b82811115610db3578251825591602001919060010190610d98565b5b509050610dc19190610ecc565b5090565b828054600181600116156101000203166002900490600052602060002090601f016020900481019282601f10610dfe5780548555610e3b565b82800160010185558215610e3b57600052602060002091601f016020900482015b82811115610e3a578254825591600101919060010190610e1f565b5b509050610e489190610ecc565b5090565b828054600181600116156101000203166002900490600052602060002090601f016020900481019282601f10610e8d57805160ff1916838001178555610ebb565b82800160010185558215610ebb579182015b82811115610eba578251825591602001919060010190610e9f565b5b509050610ec89190610ecc565b5090565b610eee91905b80821115610eea576000816000905550600101610ed2565b5090565b90565b600082601f830112610f0257600080fd5b8135610f15610f10826114c3565b611496565b91508082526020830160208301858383011115610f3157600080fd5b610f3c8382846115c2565b50505092915050565b600082601f830112610f5657600080fd5b8135610f69610f64826114ef565b611496565b91508082526020830160208301858383011115610f8557600080fd5b610f908382846115c2565b50505092915050565b600081359050610fa881611615565b92915050565b600060208284031215610fc057600080fd5b600082013567ffffffffffffffff811115610fda57600080fd5b610fe684828501610ef1565b91505092915050565b6000806040838503121561100257600080fd5b600083013567ffffffffffffffff81111561101c57600080fd5b61102885828601610f45565b925050602083013567ffffffffffffffff81111561104557600080fd5b61105185828601610f45565b9150509250929050565b60006020828403121561106d57600080fd5b600061107b84828501610f99565b91505092915050565b6000806040838503121561109757600080fd5b60006110a585828601610f99565b925050602083013567ffffffffffffffff8111156110c257600080fd5b6110ce85828601610f45565b9150509250929050565b60006110e483836111da565b905092915050565b60006110f782611540565b611101818561156e565b9350836020820285016111138561151b565b8060005b8581101561114f578484038952815161113085826110d8565b945061113b83611561565b925060208a01995050600181019050611117565b50829750879550505050505092915050565b61116a816115ac565b82525050565b600061117b82611556565b6111858185611590565b93506111958185602086016115d1565b61119e81611604565b840191505092915050565b60006111b482611556565b6111be81856115a1565b93506111ce8185602086016115d1565b80840191505092915050565b60006111e58261154b565b6111ef818561157f565b93506111ff8185602086016115d1565b61120881611604565b840191505092915050565b600061121e8261154b565b6112288185611590565b93506112388185602086016115d1565b61124181611604565b840191505092915050565b600081546001811660008114611269576001811461128e576112d2565b607f600283041661127a81876115a1565b955060ff19831686528086019350506112d2565b6002820461129c81876115a1565b95506112a78561152b565b60005b828110156112c9578154818901526001820191506020810190506112aa565b82880195505050505b505092915050565b60006112e7600683611590565b91507f65727265757200000000000000000000000000000000000000000000000000006000830152602082019050919050565b60006113276000836115a1565b9150600082019050919050565b61133d816115b8565b82525050565b600061134f82846111a9565b915081905092915050565b6000611366828461124c565b915081905092915050565b600061137c8261131a565b9150819050919050565b600060208201905081810360008301526113a081846110ec565b905092915050565b60006020820190506113bd6000830184611161565b92915050565b60006040820190506113d86000830185611161565b6113e56020830184611334565b9392505050565b60006020820190508181036000830152611405816112da565b9050919050565b60006060820190506114216000830186611334565b81810360208301526114338185611170565b905081810360408301526114478184611170565b9050949350505050565b60006060820190506114666000830186611334565b81810360208301526114788185611213565b9050818103604083015261148c8184611213565b9050949350505050565b6000604051905081810181811067ffffffffffffffff821117156114b957600080fd5b8060405250919050565b600067ffffffffffffffff8211156114da57600080fd5b601f19601f8301169050602081019050919050565b600067ffffffffffffffff82111561150657600080fd5b601f19601f8301169050602081019050919050565b6000819050602082019050919050565b60008190508160005260206000209050919050565b600081519050919050565b600081519050919050565b600081519050919050565b6000602082019050919050565b600082825260208201905092915050565b600082825260208201905092915050565b600082825260208201905092915050565b600081905092915050565b60008115159050919050565b6000819050919050565b82818337600083830152505050565b60005b838110156115ef5780820151818401526020810190506115d4565b838111156115fe576000848401525b50505050565b6000601f19601f8301169050919050565b61161e816115b8565b811461162957600080fd5b5056fea365627a7a7231582080c2bbe0b10c1e6708669194a98947676b7a2bd226326fcf4310b8aeb92ba91e6c6578706572696d656e74616cf564736f6c63430005100040",
  "source": "pragma solidity ^0.5.16;\r\npragma experimental ABIEncoderV2;\r\nimport \"./DossierMedicale.sol\";\r\ncontract UserSystem {\r\n    struct User {\r\n        uint id;\r\n        /*string nom;\r\n        string prenom;\r\n        string adresse;\r\n        string telephone;*/\r\n        string email;\r\n        string password;\r\n    }\r\n    mapping(uint => string[]) attribut;\r\n    mapping(uint => User) public listAddresse;\r\n    mapping(string => User) public list_email_user;\r\n    User[] public users;\r\n    function setUser(/*string memory _nom,string memory _prenom,string memory _adresse,string memory _telephone,*/string memory _email,string memory _password) public  returns(bool){\r\n        require((keccak256(abi.encodePacked((list_email_user[_email].email))) == keccak256(abi.encodePacked((\"\")))),\"erreur\");\r\n        uint id =users.push(User(0,_email,_password)) -1;\r\n        users[id].id=id;\r\n        listAddresse[id]=users[id];\r\n        list_email_user[_email]=users[id];\r\n        return true;\r\n    }\r\n    function addAttrubut(uint _id,string memory _attribut) public returns(bool){\r\n        attribut[_id].push(_attribut);\r\n        attribut[_id].push(\"\");\r\n        return true;\r\n    }\r\n\r\n    function GetUser(uint _id) public view returns(uint id,string memory email,string memory password){\r\n        return (listAddresse[_id].id,listAddresse[_id].email,listAddresse[_id].password);\r\n    }\r\n    function GetAttrubut(uint _id) public view returns(string[] memory){\r\n        return attribut[_id];\r\n    }\r\n    function VerifieUser(string memory _email,string memory _password) public view returns(bool v,uint _id){\r\n        if((keccak256(abi.encodePacked((list_email_user[_email].email))) == keccak256(abi.encodePacked((_email)))) &&\r\n        (keccak256(abi.encodePacked((list_email_user[_email].password))) == keccak256(abi.encodePacked((_password))))) return (true,list_email_user[_email].id);\r\n        return (false,1);\r\n    }\r\n/*\r\n    function getUsers() public view returns(string[] memory){\r\n        string[] memory p=new string[](users.length+1);\r\n        for(uint i=0;i<users.length;i++){\r\n            p[i]=users[i].email;\r\n        }\r\n        return p;\r\n    }*/\r\n\r\n}",
  "sourcePath": "/home/mehalanis/Téléchargements/testLogin/contracts/UserSystem.sol",
  "compiler": {
    "name": "solc",
    "version": "0.5.16+commit.9c3226ce.Emscripten.clang"
  },
  "schemaVersion": "3.4.1",
  "updatedAt": "2021-06-22T09:15:35.001Z",
  "networkType": "ethereum",
  "devdoc": {
    "methods": {}
  },
  "userdoc": {
    "methods": {}
  }
}