{
  "contractName": "UserSystem",
  "abi": [
    {
      "constant": true,
      "inputs": [
        {
          "internalType": "uint256",
          "name": "",
          "type": "uint256"
        }
      ],
      "name": "listAddresse",
      "outputs": [
        {
          "internalType": "uint256",
          "name": "id",
          "type": "uint256"
        },
        {
          "internalType": "string",
          "name": "email",
          "type": "string"
        },
        {
          "internalType": "string",
          "name": "password",
          "type": "string"
        }
      ],
      "payable": false,
      "stateMutability": "view",
      "type": "function"
    },
    {
      "constant": true,
      "inputs": [
        {
          "internalType": "string",
          "name": "",
          "type": "string"
        }
      ],
      "name": "list_email_user",
      "outputs": [
        {
          "internalType": "uint256",
          "name": "id",
          "type": "uint256"
        },
        {
          "internalType": "string",
          "name": "email",
          "type": "string"
        },
        {
          "internalType": "string",
          "name": "password",
          "type": "string"
        }
      ],
      "payable": false,
      "stateMutability": "view",
      "type": "function"
    },
    {
      "constant": true,
      "inputs": [
        {
          "internalType": "uint256",
          "name": "",
          "type": "uint256"
        }
      ],
      "name": "users",
      "outputs": [
        {
          "internalType": "uint256",
          "name": "id",
          "type": "uint256"
        },
        {
          "internalType": "string",
          "name": "email",
          "type": "string"
        },
        {
          "internalType": "string",
          "name": "password",
          "type": "string"
        }
      ],
      "payable": false,
      "stateMutability": "view",
      "type": "function"
    },
    {
      "constant": false,
      "inputs": [
        {
          "internalType": "string",
          "name": "_email",
          "type": "string"
        },
        {
          "internalType": "string",
          "name": "_password",
          "type": "string"
        }
      ],
      "name": "setUser",
      "outputs": [
        {
          "internalType": "bool",
          "name": "",
          "type": "bool"
        }
      ],
      "payable": false,
      "stateMutability": "nonpayable",
      "type": "function"
    },
    {
      "constant": true,
      "inputs": [
        {
          "internalType": "uint256",
          "name": "_id",
          "type": "uint256"
        }
      ],
      "name": "GetUser",
      "outputs": [
        {
          "internalType": "uint256",
          "name": "id",
          "type": "uint256"
        },
        {
          "internalType": "string",
          "name": "email",
          "type": "string"
        },
        {
          "internalType": "string",
          "name": "password",
          "type": "string"
        }
      ],
      "payable": false,
      "stateMutability": "view",
      "type": "function"
    },
    {
      "constant": true,
      "inputs": [
        {
          "internalType": "string",
          "name": "_email",
          "type": "string"
        },
        {
          "internalType": "string",
          "name": "_password",
          "type": "string"
        }
      ],
      "name": "VerifieUser",
      "outputs": [
        {
          "internalType": "bool",
          "name": "v",
          "type": "bool"
        },
        {
          "internalType": "uint256",
          "name": "_id",
          "type": "uint256"
        }
      ],
      "payable": false,
      "stateMutability": "view",
      "type": "function"
    },
    {
      "constant": true,
      "inputs": [
        {
          "internalType": "string",
          "name": "_email",
          "type": "string"
        }
      ],
      "name": "GetUserByEmail",
      "outputs": [
        {
          "internalType": "uint256",
          "name": "id",
          "type": "uint256"
        },
        {
          "internalType": "string",
          "name": "email",
          "type": "string"
        }
      ],
      "payable": false,
      "stateMutability": "view",
      "type": "function"
    }
  ],
  "bytecode": "0x608060405234801561001057600080fd5b506113db806100206000396000f3fe608060405234801561001057600080fd5b506004361061007d5760003560e01c80635728b9731161005b5780635728b973146101185780637b1e877614610148578063857192b814610179578063b654e2a6146101ab5761007d565b8063070f1d521461008257806307412f03146100b4578063365b98b2146100e6575b600080fd5b61009c60048036036100979190810190610f19565b6101dc565b6040516100ab939291906111c2565b60405180910390f35b6100ce60048036036100c99190810190610e2b565b610366565b6040516100dd93929190611207565b60405180910390f35b61010060048036036100fb9190810190610f19565b6104d6565b60405161010f93929190611207565b60405180910390f35b610132600480360361012d9190810190610ead565b61063d565b60405161013f919061112e565b60405180910390f35b610162600480360361015d9190810190610e6c565b6108cf565b604051610170929190611192565b60405180910390f35b610193600480360361018e9190810190610f19565b6109bb565b6040516101a293929190611207565b60405180910390f35b6101c560048036036101c09190810190610ead565b610b15565b6040516101d3929190611149565b60405180910390f35b600060608060008085815260200190815260200160002060000154600080868152602001908152602001600020600101600080878152602001908152602001600020600201818054600181600116156101000203166002900480601f0160208091040260200160405190810160405280929190818152602001828054600181600116156101000203166002900480156102b65780601f1061028b576101008083540402835291602001916102b6565b820191906000526020600020905b81548152906001019060200180831161029957829003601f168201915b50505050509150808054600181600116156101000203166002900480601f0160208091040260200160405190810160405280929190818152602001828054600181600116156101000203166002900480156103525780601f1061032757610100808354040283529160200191610352565b820191906000526020600020905b81548152906001019060200180831161033557829003601f168201915b505050505090509250925092509193909250565b600181805160208101820180518482526020830160208501208183528095505050505050600091509050806000015490806001018054600181600116156101000203166002900480601f01602080910402602001604051908101604052809291908181526020018280546001816001161561010002031660029004801561042e5780601f106104035761010080835404028352916020019161042e565b820191906000526020600020905b81548152906001019060200180831161041157829003601f168201915b505050505090806002018054600181600116156101000203166002900480601f0160208091040260200160405190810160405280929190818152602001828054600181600116156101000203166002900480156104cc5780601f106104a1576101008083540402835291602001916104cc565b820191906000526020600020905b8154815290600101906020018083116104af57829003601f168201915b5050505050905083565b600281815481106104e357fe5b9060005260206000209060030201600091509050806000015490806001018054600181600116156101000203166002900480601f0160208091040260200160405190810160405280929190818152602001828054600181600116156101000203166002900480156105955780601f1061056a57610100808354040283529160200191610595565b820191906000526020600020905b81548152906001019060200180831161057857829003601f168201915b505050505090806002018054600181600116156101000203166002900480601f0160208091040260200160405190810160405280929190818152602001828054600181600116156101000203166002900480156106335780601f1061060857610100808354040283529160200191610633565b820191906000526020600020905b81548152906001019060200180831161061657829003601f168201915b5050505050905083565b600060405160200161064e90611119565b6040516020818303038152906040528051906020012060018460405161067491906110eb565b90815260200160405180910390206001016040516020016106959190611102565b60405160208183030381529060405280519060200120146106eb576040517f08c379a00000000000000000000000000000000000000000000000000000000081526004016106e290611172565b60405180910390fd5b600060016002604051806060016040528060008152602001878152602001868152509080600181540180825580915050906001820390600052602060002090600302016000909192909190915060008201518160000155602082015181600101908051906020019061075e929190610c42565b50604082015181600201908051906020019061077b929190610c42565b505050039050806002828154811061078f57fe5b906000526020600020906003020160000181905550600281815481106107b157fe5b90600052602060002090600302016000808381526020019081526020016000206000820154816000015560018201816001019080546001816001161561010002031660029004610802929190610cc2565b506002820181600201908054600181600116156101000203166002900461082a929190610cc2565b509050506002818154811061083b57fe5b906000526020600020906003020160018560405161085991906110eb565b90815260200160405180910390206000820154816000015560018201816001019080546001816001161561010002031660029004610898929190610cc2565b50600282018160020190805460018160011615610100020316600290046108c0929190610cc2565b50905050600191505092915050565b600060606001836040516108e391906110eb565b90815260200160405180910390206000015460018460405161090591906110eb565b9081526020016040518091039020600101808054600181600116156101000203166002900480601f0160208091040260200160405190810160405280929190818152602001828054600181600116156101000203166002900480156109ab5780601f10610980576101008083540402835291602001916109ab565b820191906000526020600020905b81548152906001019060200180831161098e57829003601f168201915b5050505050905091509150915091565b6000602052806000526040600020600091509050806000015490806001018054600181600116156101000203166002900480601f016020809104026020016040519081016040528092919081815260200182805460018160011615610100020316600290048015610a6d5780601f10610a4257610100808354040283529160200191610a6d565b820191906000526020600020905b815481529060010190602001808311610a5057829003601f168201915b505050505090806002018054600181600116156101000203166002900480601f016020809104026020016040519081016040528092919081815260200182805460018160011615610100020316600290048015610b0b5780601f10610ae057610100808354040283529160200191610b0b565b820191906000526020600020905b815481529060010190602001808311610aee57829003601f168201915b5050505050905083565b60008083604051602001610b2991906110eb565b60405160208183030381529060405280519060200120600185604051610b4f91906110eb565b9081526020016040518091039020600101604051602001610b709190611102565b60405160208183030381529060405280519060200120148015610bfe575082604051602001610b9f91906110eb565b60405160208183030381529060405280519060200120600185604051610bc591906110eb565b9081526020016040518091039020600201604051602001610be69190611102565b60405160208183030381529060405280519060200120145b15610c2f5760018085604051610c1491906110eb565b90815260200160405180910390206000015491509150610c3b565b60006001809050915091505b9250929050565b828054600181600116156101000203166002900490600052602060002090601f016020900481019282601f10610c8357805160ff1916838001178555610cb1565b82800160010185558215610cb1579182015b82811115610cb0578251825591602001919060010190610c95565b5b509050610cbe9190610d49565b5090565b828054600181600116156101000203166002900490600052602060002090601f016020900481019282601f10610cfb5780548555610d38565b82800160010185558215610d3857600052602060002091601f016020900482015b82811115610d37578254825591600101919060010190610d1c565b5b509050610d459190610d49565b5090565b610d6b91905b80821115610d67576000816000905550600101610d4f565b5090565b90565b600082601f830112610d7f57600080fd5b8135610d92610d8d82611279565b61124c565b91508082526020830160208301858383011115610dae57600080fd5b610db983828461132e565b50505092915050565b600082601f830112610dd357600080fd5b8135610de6610de1826112a5565b61124c565b91508082526020830160208301858383011115610e0257600080fd5b610e0d83828461132e565b50505092915050565b600081359050610e2581611381565b92915050565b600060208284031215610e3d57600080fd5b600082013567ffffffffffffffff811115610e5757600080fd5b610e6384828501610d6e565b91505092915050565b600060208284031215610e7e57600080fd5b600082013567ffffffffffffffff811115610e9857600080fd5b610ea484828501610dc2565b91505092915050565b60008060408385031215610ec057600080fd5b600083013567ffffffffffffffff811115610eda57600080fd5b610ee685828601610dc2565b925050602083013567ffffffffffffffff811115610f0357600080fd5b610f0f85828601610dc2565b9150509250929050565b600060208284031215610f2b57600080fd5b6000610f3984828501610e16565b91505092915050565b610f4b81611318565b82525050565b6000610f5c826112f1565b610f6681856112fc565b9350610f7681856020860161133d565b610f7f81611370565b840191505092915050565b6000610f95826112f1565b610f9f818561130d565b9350610faf81856020860161133d565b80840191505092915050565b6000610fc6826112e6565b610fd081856112fc565b9350610fe081856020860161133d565b610fe981611370565b840191505092915050565b60008154600181166000811461101157600181146110365761107a565b607f6002830416611022818761130d565b955060ff198316865280860193505061107a565b60028204611044818761130d565b955061104f856112d1565b60005b8281101561107157815481890152600182019150602081019050611052565b82880195505050505b505092915050565b600061108f6006836112fc565b91507f65727265757200000000000000000000000000000000000000000000000000006000830152602082019050919050565b60006110cf60008361130d565b9150600082019050919050565b6110e581611324565b82525050565b60006110f78284610f8a565b915081905092915050565b600061110e8284610ff4565b915081905092915050565b6000611124826110c2565b9150819050919050565b60006020820190506111436000830184610f42565b92915050565b600060408201905061115e6000830185610f42565b61116b60208301846110dc565b9392505050565b6000602082019050818103600083015261118b81611082565b9050919050565b60006040820190506111a760008301856110dc565b81810360208301526111b98184610f51565b90509392505050565b60006060820190506111d760008301866110dc565b81810360208301526111e98185610f51565b905081810360408301526111fd8184610f51565b9050949350505050565b600060608201905061121c60008301866110dc565b818103602083015261122e8185610fbb565b905081810360408301526112428184610fbb565b9050949350505050565b6000604051905081810181811067ffffffffffffffff8211171561126f57600080fd5b8060405250919050565b600067ffffffffffffffff82111561129057600080fd5b601f19601f8301169050602081019050919050565b600067ffffffffffffffff8211156112bc57600080fd5b601f19601f8301169050602081019050919050565b60008190508160005260206000209050919050565b600081519050919050565b600081519050919050565b600082825260208201905092915050565b600081905092915050565b60008115159050919050565b6000819050919050565b82818337600083830152505050565b60005b8381101561135b578082015181840152602081019050611340565b8381111561136a576000848401525b50505050565b6000601f19601f8301169050919050565b61138a81611324565b811461139557600080fd5b5056fea365627a7a723158200276007a5c5330210cc6db4d601c4b7f00d2283b9471a419f41b11663ec170476c6578706572696d656e74616cf564736f6c63430005100040",
  "source": "pragma solidity ^0.5.16;\npragma experimental ABIEncoderV2;\nimport \"./DossierMedicale.sol\";\ncontract UserSystem {\n    struct User {\n        uint id;\n        /*string nom;\n        string prenom;\n        string adresse;\n        string telephone;*/\n        string email;\n        string password;\n    }\n    mapping(uint => User) public listAddresse;\n    mapping(string => User) public list_email_user;\n    User[] public users;\n    function setUser(/*string memory _nom,string memory _prenom,string memory _adresse,string memory _telephone,*/string memory _email,string memory _password) public  returns(bool){\n        require((keccak256(abi.encodePacked((list_email_user[_email].email))) == keccak256(abi.encodePacked((\"\")))),\"erreur\");\n        uint id =users.push(User(0,_email,_password)) -1;\n        users[id].id=id;\n        listAddresse[id]=users[id];\n        list_email_user[_email]=users[id];\n        return true;\n    }\n    \n\n    function GetUser(uint _id) public view returns(uint id,string memory email,string memory password){\n        return (listAddresse[_id].id,listAddresse[_id].email,listAddresse[_id].password);\n    }\n\n    \n    function VerifieUser(string memory _email,string memory _password) public view returns(bool v,uint _id){\n        if((keccak256(abi.encodePacked((list_email_user[_email].email))) == keccak256(abi.encodePacked((_email)))) &&\n        (keccak256(abi.encodePacked((list_email_user[_email].password))) == keccak256(abi.encodePacked((_password))))) return (true,list_email_user[_email].id);\n        return (false,1);\n    }\n      function GetUserByEmail(string memory _email) public view returns(uint id,string memory email){\n        return (list_email_user[_email].id,list_email_user[_email].email);\n    }\n  /*\n    function getUsers() public view returns(string[] memory){\n        string[] memory p=new string[](users.length+1);\n        for(uint i=0;i<users.length;i++){\n            p[i]=users[i].email;\n        }\n        return p;\n    }*/\n\n}",
  "sourcePath": "/home/kali/Desktop/blockchain/test/e-health_blockchain/contracts/UserSystem.sol",
  "compiler": {
    "name": "solc",
    "version": "0.5.16+commit.9c3226ce.Emscripten.clang"
  },
  "schemaVersion": "3.4.1",
  "updatedAt": "2021-06-28T21:58:08.667Z",
  "networkType": "ethereum",
  "devdoc": {
    "methods": {}
  },
  "userdoc": {
    "methods": {}
  }
}