{
  "contractName": "UserSystem",
  "abi": [
    {
      "constant": true,
      "inputs": [
        {
          "internalType": "uint256",
          "name": "",
          "type": "uint256"
        }
      ],
      "name": "listAddresse",
      "outputs": [
        {
          "internalType": "uint256",
          "name": "id",
          "type": "uint256"
        },
        {
          "internalType": "string",
          "name": "email",
          "type": "string"
        },
        {
          "internalType": "string",
          "name": "password",
          "type": "string"
        },
        {
          "internalType": "string",
          "name": "PK",
          "type": "string"
        }
      ],
      "payable": false,
      "stateMutability": "view",
      "type": "function"
    },
    {
      "constant": true,
      "inputs": [
        {
          "internalType": "string",
          "name": "",
          "type": "string"
        }
      ],
      "name": "list_email_user",
      "outputs": [
        {
          "internalType": "uint256",
          "name": "id",
          "type": "uint256"
        },
        {
          "internalType": "string",
          "name": "email",
          "type": "string"
        },
        {
          "internalType": "string",
          "name": "password",
          "type": "string"
        },
        {
          "internalType": "string",
          "name": "PK",
          "type": "string"
        }
      ],
      "payable": false,
      "stateMutability": "view",
      "type": "function"
    },
    {
      "constant": true,
      "inputs": [
        {
          "internalType": "uint256",
          "name": "",
          "type": "uint256"
        }
      ],
      "name": "users",
      "outputs": [
        {
          "internalType": "uint256",
          "name": "id",
          "type": "uint256"
        },
        {
          "internalType": "string",
          "name": "email",
          "type": "string"
        },
        {
          "internalType": "string",
          "name": "password",
          "type": "string"
        },
        {
          "internalType": "string",
          "name": "PK",
          "type": "string"
        }
      ],
      "payable": false,
      "stateMutability": "view",
      "type": "function"
    },
    {
      "constant": false,
      "inputs": [
        {
          "internalType": "string",
          "name": "_email",
          "type": "string"
        },
        {
          "internalType": "string",
          "name": "_password",
          "type": "string"
        },
        {
          "internalType": "string",
          "name": "_PK",
          "type": "string"
        }
      ],
      "name": "setUser",
      "outputs": [
        {
          "internalType": "bool",
          "name": "",
          "type": "bool"
        }
      ],
      "payable": false,
      "stateMutability": "nonpayable",
      "type": "function"
    },
    {
      "constant": true,
      "inputs": [
        {
          "internalType": "uint256",
          "name": "_id",
          "type": "uint256"
        }
      ],
      "name": "GetUser",
      "outputs": [
        {
          "internalType": "uint256",
          "name": "id",
          "type": "uint256"
        },
        {
          "internalType": "string",
          "name": "email",
          "type": "string"
        },
        {
          "internalType": "string",
          "name": "password",
          "type": "string"
        },
        {
          "internalType": "string",
          "name": "_PK",
          "type": "string"
        }
      ],
      "payable": false,
      "stateMutability": "view",
      "type": "function"
    },
    {
      "constant": true,
      "inputs": [
        {
          "internalType": "string",
          "name": "_email",
          "type": "string"
        },
        {
          "internalType": "string",
          "name": "_password",
          "type": "string"
        }
      ],
      "name": "VerifieUser",
      "outputs": [
        {
          "internalType": "bool",
          "name": "v",
          "type": "bool"
        },
        {
          "internalType": "uint256",
          "name": "_id",
          "type": "uint256"
        }
      ],
      "payable": false,
      "stateMutability": "view",
      "type": "function"
    },
    {
      "constant": false,
      "inputs": [
        {
          "internalType": "uint256",
          "name": "_id",
          "type": "uint256"
        },
        {
          "internalType": "string",
          "name": "_PK",
          "type": "string"
        }
      ],
      "name": "setPK",
      "outputs": [
        {
          "internalType": "bool",
          "name": "",
          "type": "bool"
        }
      ],
      "payable": false,
      "stateMutability": "nonpayable",
      "type": "function"
    }
  ],
  "bytecode": "0x608060405234801561001057600080fd5b50611d40806100206000396000f3fe608060405234801561001057600080fd5b506004361061007d5760003560e01c80636b17b2741161005b5780636b17b274146105a1578063857192b8146107a2578063b654e2a614610928578063e143ac8214610a995761007d565b8063070f1d521461008257806307412f0314610208578063365b98b21461041b575b600080fd5b6100ae6004803603602081101561009857600080fd5b8101908080359060200190929190505050610b76565b60405180858152602001806020018060200180602001848103845287818151815260200191508051906020019080838360005b838110156100fc5780820151818401526020810190506100e1565b50505050905090810190601f1680156101295780820380516001836020036101000a031916815260200191505b50848103835286818151815260200191508051906020019080838360005b83811015610162578082015181840152602081019050610147565b50505050905090810190601f16801561018f5780820380516001836020036101000a031916815260200191505b50848103825285818151815260200191508051906020019080838360005b838110156101c85780820151818401526020810190506101ad565b50505050905090810190601f1680156101f55780820380516001836020036101000a031916815260200191505b5097505050505050505060405180910390f35b6102c16004803603602081101561021e57600080fd5b810190808035906020019064010000000081111561023b57600080fd5b82018360208201111561024d57600080fd5b8035906020019184600183028401116401000000008311171561026f57600080fd5b91908080601f016020809104026020016040519081016040528093929190818152602001838380828437600081840152601f19601f820116905080830192505050505050509192919290505050610db5565b60405180858152602001806020018060200180602001848103845287818151815260200191508051906020019080838360005b8381101561030f5780820151818401526020810190506102f4565b50505050905090810190601f16801561033c5780820380516001836020036101000a031916815260200191505b50848103835286818151815260200191508051906020019080838360005b8381101561037557808201518184015260208101905061035a565b50505050905090810190601f1680156103a25780820380516001836020036101000a031916815260200191505b50848103825285818151815260200191508051906020019080838360005b838110156103db5780820151818401526020810190506103c0565b50505050905090810190601f1680156104085780820380516001836020036101000a031916815260200191505b5097505050505050505060405180910390f35b6104476004803603602081101561043157600080fd5b8101908080359060200190929190505050610fc3565b60405180858152602001806020018060200180602001848103845287818151815260200191508051906020019080838360005b8381101561049557808201518184015260208101905061047a565b50505050905090810190601f1680156104c25780820380516001836020036101000a031916815260200191505b50848103835286818151815260200191508051906020019080838360005b838110156104fb5780820151818401526020810190506104e0565b50505050905090810190601f1680156105285780820380516001836020036101000a031916815260200191505b50848103825285818151815260200191508051906020019080838360005b83811015610561578082015181840152602081019050610546565b50505050905090810190601f16801561058e5780820380516001836020036101000a031916815260200191505b5097505050505050505060405180910390f35b610788600480360360608110156105b757600080fd5b81019080803590602001906401000000008111156105d457600080fd5b8201836020820111156105e657600080fd5b8035906020019184600183028401116401000000008311171561060857600080fd5b91908080601f016020809104026020016040519081016040528093929190818152602001838380828437600081840152601f19601f8201169050808301925050505050505091929192908035906020019064010000000081111561066b57600080fd5b82018360208201111561067d57600080fd5b8035906020019184600183028401116401000000008311171561069f57600080fd5b91908080601f016020809104026020016040519081016040528093929190818152602001838380828437600081840152601f19601f8201169050808301925050505050505091929192908035906020019064010000000081111561070257600080fd5b82018360208201111561071457600080fd5b8035906020019184600183028401116401000000008311171561073657600080fd5b91908080601f016020809104026020016040519081016040528093929190818152602001838380828437600081840152601f19601f8201169050808301925050505050505091929192905050506111c8565b604051808215151515815260200191505060405180910390f35b6107ce600480360360208110156107b857600080fd5b81019080803590602001909291905050506115e7565b60405180858152602001806020018060200180602001848103845287818151815260200191508051906020019080838360005b8381101561081c578082015181840152602081019050610801565b50505050905090810190601f1680156108495780820380516001836020036101000a031916815260200191505b50848103835286818151815260200191508051906020019080838360005b83811015610882578082015181840152602081019050610867565b50505050905090810190601f1680156108af5780820380516001836020036101000a031916815260200191505b50848103825285818151815260200191508051906020019080838360005b838110156108e85780820151818401526020810190506108cd565b50505050905090810190601f1680156109155780820380516001836020036101000a031916815260200191505b5097505050505050505060405180910390f35b610a786004803603604081101561093e57600080fd5b810190808035906020019064010000000081111561095b57600080fd5b82018360208201111561096d57600080fd5b8035906020019184600183028401116401000000008311171561098f57600080fd5b91908080601f016020809104026020016040519081016040528093929190818152602001838380828437600081840152601f19601f820116905080830192505050505050509192919290803590602001906401000000008111156109f257600080fd5b820183602082011115610a0457600080fd5b80359060200191846001830284011164010000000083111715610a2657600080fd5b91908080601f016020809104026020016040519081016040528093929190818152602001838380828437600081840152601f19601f8201169050808301925050505050505091929192905050506117df565b60405180831515151581526020018281526020019250505060405180910390f35b610b5c60048036036040811015610aaf57600080fd5b810190808035906020019092919080359060200190640100000000811115610ad657600080fd5b820183602082011115610ae857600080fd5b80359060200191846001830284011164010000000083111715610b0a57600080fd5b91908080601f016020809104026020016040519081016040528093929190818152602001838380828437600081840152601f19601f820116905080830192505050505050509192919290505050611b29565b604051808215151515815260200191505060405180910390f35b6000606080606060008086815260200190815260200160002060000154600080878152602001908152602001600020600101600080888152602001908152602001600020600201600080898152602001908152602001600020600301828054600181600116156101000203166002900480601f016020809104026020016040519081016040528092919081815260200182805460018160011615610100020316600290048015610c675780601f10610c3c57610100808354040283529160200191610c67565b820191906000526020600020905b815481529060010190602001808311610c4a57829003601f168201915b50505050509250818054600181600116156101000203166002900480601f016020809104026020016040519081016040528092919081815260200182805460018160011615610100020316600290048015610d035780601f10610cd857610100808354040283529160200191610d03565b820191906000526020600020905b815481529060010190602001808311610ce657829003601f168201915b50505050509150808054600181600116156101000203166002900480601f016020809104026020016040519081016040528092919081815260200182805460018160011615610100020316600290048015610d9f5780601f10610d7457610100808354040283529160200191610d9f565b820191906000526020600020905b815481529060010190602001808311610d8257829003601f168201915b5050505050905093509350935093509193509193565b600181805160208101820180518482526020830160208501208183528095505050505050600091509050806000015490806001018054600181600116156101000203166002900480601f016020809104026020016040519081016040528092919081815260200182805460018160011615610100020316600290048015610e7d5780601f10610e5257610100808354040283529160200191610e7d565b820191906000526020600020905b815481529060010190602001808311610e6057829003601f168201915b505050505090806002018054600181600116156101000203166002900480601f016020809104026020016040519081016040528092919081815260200182805460018160011615610100020316600290048015610f1b5780601f10610ef057610100808354040283529160200191610f1b565b820191906000526020600020905b815481529060010190602001808311610efe57829003601f168201915b505050505090806003018054600181600116156101000203166002900480601f016020809104026020016040519081016040528092919081815260200182805460018160011615610100020316600290048015610fb95780601f10610f8e57610100808354040283529160200191610fb9565b820191906000526020600020905b815481529060010190602001808311610f9c57829003601f168201915b5050505050905084565b60028181548110610fd057fe5b9060005260206000209060040201600091509050806000015490806001018054600181600116156101000203166002900480601f0160208091040260200160405190810160405280929190818152602001828054600181600116156101000203166002900480156110825780601f1061105757610100808354040283529160200191611082565b820191906000526020600020905b81548152906001019060200180831161106557829003601f168201915b505050505090806002018054600181600116156101000203166002900480601f0160208091040260200160405190810160405280929190818152602001828054600181600116156101000203166002900480156111205780601f106110f557610100808354040283529160200191611120565b820191906000526020600020905b81548152906001019060200180831161110357829003601f168201915b505050505090806003018054600181600116156101000203166002900480601f0160208091040260200160405190810160405280929190818152602001828054600181600116156101000203166002900480156111be5780601f10611193576101008083540402835291602001916111be565b820191906000526020600020905b8154815290600101906020018083116111a157829003601f168201915b5050505050905084565b6000604051602001806000019050604051602081830303815290604052805190602001206001856040518082805190602001908083835b6020831061122257805182526020820191506020810190506020830392506111ff565b6001836020036101000a038019825116818451168082178552505050505050905001915050908152602001604051809103902060010160405160200180828054600181600116156101000203166002900480156112b65780601f106112945761010080835404028352918201916112b6565b820191906000526020600020905b8154815290600101906020018083116112a2575b50509150506040516020818303038152906040528051906020012014611344576040517f08c379a00000000000000000000000000000000000000000000000000000000081526004018080602001828103825260068152602001807f657272657572000000000000000000000000000000000000000000000000000081525060200191505060405180910390fd5b60006001600260405180608001604052806000815260200188815260200187815260200186815250908060018154018082558091505090600182039060005260206000209060040201600090919290919091506000820151816000015560208201518160010190805190602001906113bd929190611b5f565b5060408201518160020190805190602001906113da929190611b5f565b5060608201518160030190805190602001906113f7929190611b5f565b505050039050806002828154811061140b57fe5b9060005260206000209060040201600001819055506002818154811061142d57fe5b9060005260206000209060040201600080838152602001908152602001600020600082015481600001556001820181600101908054600181600116156101000203166002900461147e929190611bdf565b50600282018160020190805460018160011615610100020316600290046114a6929190611bdf565b50600382018160030190805460018160011615610100020316600290046114ce929190611bdf565b50905050600281815481106114df57fe5b90600052602060002090600402016001866040518082805190602001908083835b602083106115235780518252602082019150602081019050602083039250611500565b6001836020036101000a03801982511681845116808217855250505050505090500191505090815260200160405180910390206000820154816000015560018201816001019080546001816001161561010002031660029004611587929190611bdf565b50600282018160020190805460018160011615610100020316600290046115af929190611bdf565b50600382018160030190805460018160011615610100020316600290046115d7929190611bdf565b5090505060019150509392505050565b6000602052806000526040600020600091509050806000015490806001018054600181600116156101000203166002900480601f0160208091040260200160405190810160405280929190818152602001828054600181600116156101000203166002900480156116995780601f1061166e57610100808354040283529160200191611699565b820191906000526020600020905b81548152906001019060200180831161167c57829003601f168201915b505050505090806002018054600181600116156101000203166002900480601f0160208091040260200160405190810160405280929190818152602001828054600181600116156101000203166002900480156117375780601f1061170c57610100808354040283529160200191611737565b820191906000526020600020905b81548152906001019060200180831161171a57829003601f168201915b505050505090806003018054600181600116156101000203166002900480601f0160208091040260200160405190810160405280929190818152602001828054600181600116156101000203166002900480156117d55780601f106117aa576101008083540402835291602001916117d5565b820191906000526020600020905b8154815290600101906020018083116117b857829003601f168201915b5050505050905084565b600080836040516020018082805190602001908083835b6020831061181957805182526020820191506020810190506020830392506117f6565b6001836020036101000a038019825116818451168082178552505050505050905001915050604051602081830303815290604052805190602001206001856040518082805190602001908083835b6020831061188a5780518252602082019150602081019050602083039250611867565b6001836020036101000a0380198251168184511680821785525050505050509050019150509081526020016040518091039020600101604051602001808280546001816001161561010002031660029004801561191e5780601f106118fc57610100808354040283529182019161191e565b820191906000526020600020905b81548152906001019060200180831161190a575b505091505060405160208183030381529060405280519060200120148015611a9a5750826040516020018082805190602001908083835b602083106119785780518252602082019150602081019050602083039250611955565b6001836020036101000a038019825116818451168082178552505050505050905001915050604051602081830303815290604052805190602001206001856040518082805190602001908083835b602083106119e957805182526020820191506020810190506020830392506119c6565b6001836020036101000a03801982511681845116808217855250505050505090500191505090815260200160405180910390206002016040516020018082805460018160011615610100020316600290048015611a7d5780601f10611a5b576101008083540402835291820191611a7d565b820191906000526020600020905b815481529060010190602001808311611a69575b505091505060405160208183030381529060405280519060200120145b15611b1657600180856040518082805190602001908083835b60208310611ad65780518252602082019150602081019050602083039250611ab3565b6001836020036101000a03801982511681845116808217855250505050505090500191505090815260200160405180910390206000015491509150611b22565b60006001809050915091505b9250929050565b6000816000808581526020019081526020016000206003019080519060200190611b54929190611c66565b506001905092915050565b828054600181600116156101000203166002900490600052602060002090601f016020900481019282601f10611ba057805160ff1916838001178555611bce565b82800160010185558215611bce579182015b82811115611bcd578251825591602001919060010190611bb2565b5b509050611bdb9190611ce6565b5090565b828054600181600116156101000203166002900490600052602060002090601f016020900481019282601f10611c185780548555611c55565b82800160010185558215611c5557600052602060002091601f016020900482015b82811115611c54578254825591600101919060010190611c39565b5b509050611c629190611ce6565b5090565b828054600181600116156101000203166002900490600052602060002090601f016020900481019282601f10611ca757805160ff1916838001178555611cd5565b82800160010185558215611cd5579182015b82811115611cd4578251825591602001919060010190611cb9565b5b509050611ce29190611ce6565b5090565b611d0891905b80821115611d04576000816000905550600101611cec565b5090565b9056fea265627a7a7231582047ecc3525944b7227abeb50dc69e4ceb3fde17083874ba8f2e9dee39e3d125f164736f6c63430005100032",
  "source": "pragma solidity ^0.5.16;\r\nimport \"./DossierMedicale.sol\";\r\ncontract UserSystem {\r\n    struct User {\r\n        uint id;\r\n        /*string nom;\r\n        string prenom;\r\n        string adresse;\r\n        string telephone;*/\r\n        string email;\r\n        string password;\r\n        string PK;\r\n    }\r\n    \r\n    mapping(uint => User) public listAddresse;\r\n    mapping(string => User) public list_email_user;\r\n    User[] public users;\r\n    function setUser(/*string memory _nom,string memory _prenom,string memory _adresse,string memory _telephone,*/string memory _email,string memory _password,string memory _PK) public  returns(bool){\r\n        require((keccak256(abi.encodePacked((list_email_user[_email].email))) == keccak256(abi.encodePacked((\"\")))),\"erreur\");\r\n        uint id =users.push(User(0,_email,_password,_PK)) -1;\r\n        users[id].id=id;\r\n        listAddresse[id]=users[id];\r\n        list_email_user[_email]=users[id];\r\n        return true;\r\n    }\r\n\r\n    function GetUser(uint _id) public view returns(uint id,string memory email,string memory password,string memory _PK){\r\n        return (listAddresse[_id].id,listAddresse[_id].email,listAddresse[_id].password,listAddresse[_id].PK);\r\n    }\r\n    function VerifieUser(string memory _email,string memory _password) public view returns(bool v,uint _id){\r\n        if((keccak256(abi.encodePacked((list_email_user[_email].email))) == keccak256(abi.encodePacked((_email)))) &&\r\n        (keccak256(abi.encodePacked((list_email_user[_email].password))) == keccak256(abi.encodePacked((_password))))) return (true,list_email_user[_email].id);\r\n        return (false,1);\r\n    }\r\n    function setPK(uint _id,string memory _PK) public  returns(bool){\r\n        listAddresse[_id].PK=_PK;\r\n        return true;\r\n    }\r\n\r\n\r\n}",
  "sourcePath": "/home/mehalanis/Tlchargements/testLogin/contracts/UserSystem.sol",
  "compiler": {
    "name": "solc",
    "version": "0.5.16+commit.9c3226ce.Emscripten.clang"
  },
  "schemaVersion": "3.4.1",
  "updatedAt": "2021-06-04T22:08:20.824Z",
  "networkType": "ethereum",
  "devdoc": {
    "methods": {}
  },
  "userdoc": {
    "methods": {}
  }
}